:020000040800F2
:10000000E817002025050008790200087B02000897
:100010007F02000883020008870200080000000039
:100020000000000000000000000000008B0200083B
:100030008D020008000000008F02000891020008F5
:100040003F050008930200083F0500083F0500082F
:100050003F0500083F050008275100082951000806
:100060002B5100082D5100082F510008834600082D
:100070003F0500083F0500083F0500083F05000850
:100080003F0500083F0500083F0500083F05000840
:10009000C54D00083F0500083F0500083151000824
:1000A0003F0500083F0500083F0500083F05000820
:1000B0007B5700083F050008615900083F0500080C
:1000C0003F0500083F0500083F0500083F05000800
:1000D0003F050008396900080D6A0008D76A000862
:1000E0005D5100083F0500083F05000800000000C2
:1000F0000000000000000000000000000000000000
:1001000000000000000000004D5A00083F050008F4
:10011000B56D00083F050008D76500084F67000867
:100120003F0500083F050008716C00083F05000806
:100130003F0500083F0500083F0500083F0500088F
:100140003F0500083F0500083F0500083F0500087F
:1001500000F002F800F062F80AA090E8000C824477
:100160008344AAF10107DA4501D100F057F8AFF254
:10017000090EBAE80F0013F0010F18BFFB1A43F085
:1001800001031847D0960000F09600000A444FF093
:10019000000C10F8013B13F0070408BF10F8014BE6
:1001A0001D1108BF10F8015B641E05D010F8016B2B
:1001B000641E01F8016BF9D113F0080F1EBF10F88F
:1001C000014BAD1C0C1B09D16D1E58BF01F801CBB2
:1001D000FAD505E014F8016B01F8016B6D1EF9D535
:1001E0009142D6D37047000000230024002500264A
:1001F000103A28BF78C1FBD8520728BF30C148BF8A
:100200000B607047642908F06B81782908F0A4819D
:10021000002070471FB51FBD10B510BD08F08CFA47
:100220001146FFF7F7FF00F009F808F0AAFA03B447
:10023000FFF7F2FF03BC06F0F9FA000007F0C1FE79
:1002400004F0BCFF4FF400510A4801F00EF864219D
:10025000002005F070FE07F0BDFC0AE000BF08F0CA
:1002600061F80028FBD003F03CFD03F0BCFD03F077
:100270009BFDF3E700100140704700BFFEE700BFA1
:10028000FEE700BFFEE700BFFEE77047704770471C
:10029000704710B5042001F0D7F84FF4803000F01B
:1002A000CEFE10BD0CB50020019000909248006871
:1002B00040F480309049086000BF8F48006800F427
:1002C000003000900198401C0190009818B90198E6
:1002D000B0F5A06FF1D18848006800F4003010B18B
:1002E0000120009001E000200090009801285CD1DE
:1002F0008248006840F010008049086008460068A5
:1003000020F0030008600846006840F00200086022
:10031000794840687849486008464068486008461F
:10032000406840F4806048600846C06A74490840EC
:100330007149C8620846C06A724908436E49C8627A
:100340000846006840F08060086000BF6A480068A6
:1003500000F000600028F9D06748406820F47C1065
:10036000654948600846406840F4E810486008461F
:10037000006840F08070086000BF5F48006800F0CF
:1003800000700028F9D05C48406820F003005A490A
:1003900048600846406840F00200486000BF564888
:1003A000406800F00C000828F9D10CBD10B5FFF72B
:1003B00079FF10BD10B55048006840F001004E496B
:1003C000086008464068504908404B494860084664
:1003D00000684E490840484908600846006820F413
:1003E000802008600846406820F4FE004860084607
:1003F000006820F0A05008604FF47F008860002063
:10040000C862FFF7D3FF4FF000604149086010BD9C
:10041000F0B5002100200023002400220025002642
:10042000354F7F6807F00C0121B1042908D0082955
:100430004BD10BE0374FDFF8E0C0CCF800704AE05A
:10044000344FDFF8D4C0CCF8007044E02A4F7F6806
:1004500007F47010284F7F6807F48033800C0D2854
:1004600001D0801C00E0062033B92C4F4743DFF851
:10047000A8C0CCF8007027E01F4FFF6A07F4803453
:100480001D4FFF6A07F00F077A1C44B9214FB7FBD5
:10049000F2F74743DFF880C0CCF8007014E0164F45
:1004A000FF6AC7F303177D1C134FFF6AC7F30327C7
:1004B000BE1C184FB7FBF5F77743B7FBF2F747437E
:1004C000DFF854C0CCF8007005E0124FDFF848C0E8
:1004D000CCF8007000BF00BF074F7F68C7F3031759
:1004E000DFF83CC01CF807100B4F3F68CF40DFF827
:1004F00028C0CCF80070F0BD00100240002002407F
:1005000000F0FEFF440601000000FFF0FFFFF6FED2
:1005100008ED00E000127A000000002000093D0014
:10052000040000200948804709480047FEE7FEE72D
:10053000FEE7FEE7FEE7FEE7FEE7FEE7FEE7FEE793
:1005400004480549054A064B70470000B5030008FA
:1005500051010008E8110020E8170020E8130020EE
:10056000E813002031490143314A1160704770B5EA
:10057000002100230F22C47804B32D4C246804F416
:10058000E064C4F5E064210AC1F10403CA40447880
:1005900004FA03F18478144021430901254C0678BC
:1005A000A155047804F01F050124AC4005786D11B5
:1005B000AD0005F1E025C5F8004109E0047804F03C
:1005C0001F050124AC401C4D0678761145F82640E5
:1005D00070BD1A4A0A400243154B1B1F1A60704730
:1005E00039B1134A121D12680243114B1B1D1A60C8
:1005F00006E00F4A121D126882430D4B1B1D1A6044
:100600007047042808D14FF0E021096941F0040146
:100610004FF0E022116107E04FF0E021096921F07D
:1006200004014FF0E0221161704700000000FA055C
:100630000CED00E000E400E080E100E080FFFF1F3F
:1006400010B50446FA48844208D10121401501F052
:1006500055F90021601501F051F917E0F548844281
:1006600008D10121001501F049F90021201501F000
:1006700045F90BE0F048844208D10121C80301F09C
:100680003DF900214FF4004001F038F910BD30B5BC
:100690000246002000235068E84C20400D790C6889
:1006A00044EA0524204350609068E54C2040D1E99D
:1006B00002542C434D7944EA450420439060D06AAB
:1006C00020F470000C7C641EE4B2234340EA035023
:1006D000D06230BD00210160017141718160C16053
:1006E00001210174704721B1826842F001028260E9
:1006F00003E0826822F001028260704721B18268C3
:1007000042F48072826003E0826822F48072826028
:10071000704710B50023CBB21AB144681C43446043
:1007200002E044689C43446010BD816841F00801C8
:1007300081607047014600208A6802F008020AB111
:10074000012000E000207047816841F004018160D1
:100750007047014600208A6802F004020AB10120B5
:1007600000E00020704721B1826842F4A00282605C
:1007700003E0826822F4A0028260704701460020F4
:100780008A6802F480020AB1012000E0002070476C
:1007900010B50A4600210023416821F46041531E30
:1007A00041EA4331416010BD21B1426842F4006228
:1007B000426003E0426822F4006242607047F0B594
:1007C00004460D4600200021092D11DDE068A5F149
:1007D0000A0606EB4607072606FA07F18843A5F145
:1007E0000A0606EB460603FA06F10843E0600CE051
:1007F000206905EB4507072606FA07F1884305EB54
:10080000450603FA06F108432061072A0FDA606BF8
:10081000561E06EB86071F2606FA07F18843561E6A
:1008200006EB860605FA06F10843606322E00D2A0E
:100830000FDA206BD61F06EB86071F2606FA07F194
:100840008843D61F06EB860605FA06F108432063A7
:1008500010E0E06AA2F10D0606EB86071F2606FAF5
:1008600007F18843A2F10D0606EB860605FA06F1AC
:100870000843E062F0BD21B1826842F480128260D8
:1008800003E0826822F48012826070470146C86CDF
:1008900080B2704766484C300068704721B14268AA
:1008A00042F48062426003E0426822F48062426067
:1008B000704721B1426842F48052426003E04268CE
:1008C00022F48052426070470A460021816821F478
:1008D000E04111438160704721B1826842F40042D7
:1008E000826003E0826822F400428260704721B196
:1008F000826842F40212826003E0826822F40212EB
:1009000082607047014600208A6802F400120AB132
:10091000012000E000207047F0B504461546002095
:1009200000220026092911DDE068A1F10A0707EB82
:10093000470C072707FA0CF29043A1F10A0707EBCF
:10094000470703FA07F21043E0600CE0206901EB6F
:10095000410C072707FA0CF2904301EB410703FA19
:1009600007F210432061A06BC0F30156EF1C06F1A3
:10097000010CA7EB0C0707EB870C1F2707FA0CF2FB
:100980009043EF1C06F1010CA7EB0C0707EB870760
:1009900001FA07F21043A063F0BD10B50A4600212A
:1009A0000023816B21F44011531E41EA03518163FE
:1009B00010BD08B5002300930090009B0B440093EA
:1009C000009B1A6008BD08B5024600200090009206
:1009D00001F12800009B184400900098006880B244
:1009E00008BD0A4600214168164B19401143416079
:1009F00070474162826270470A460021416821F0D7
:100A00001F0111434160704740B10949083109682D
:100A100041F40001064A0832116007E00449083138
:100A2000096821F40001024A083211607047000091
:100A30000024014000280140003C0140FFFEF0FF7F
:100A4000FDF7F1FFFFFD3FFF0246002013680B405A
:100A50000BB1012000E000207047CA4302607047DC
:100A600070B502460020002300240B125568CEB258
:100A700005EA060415681D4015B10CB1012000E01F
:100A8000002070BD00220A12D343036070470000AB
:100A900010B5012000F04CFF002000F049FF10BD10
:100AA0002A49086070472949091F0860704727498B
:100AB00084310860704701460020254A10884FF6AF
:100AC0007F4210400843224A1080704701460020B0
:100AD0001F4A10884FF68072104008431C4A10804D
:100AE000704708B500220092194A2C3A0092009AE9
:100AF00002440092009A116008BD08B5014600202A
:100B0000009013482C3800900098084400900098FA
:100B1000008808BD0D489C300068C0B270470C4882
:100B20000830008840F0010009490831088070470A
:100B30000648A0300068C0B27047054808300088F9
:100B400040F00200024908310880704704860D42D7
:100B50002C6C004010B50121480700F0DCFE00219C
:100B60004FF0005000F0D7FE10BD30B5002200233A
:100B70005A4C226840F6FE748440A243D1E90045F5
:100B80002C438D682C43CD6844EA050303FA00F436
:100B90002243524C226030BD0021016041608160DF
:100BA000C160704739B14D4A1268012383401A432E
:100BB0004A4B1A6006E0494A1268012383409A436F
:100BC000464B1A60704741B1444A12684FF4805353
:100BD00083401A43414B1A6007E0404A12684FF4C1
:100BE000805383409A433D4B1A60704710B551B112
:100BF0003A4A121D126804090123A3401A43374BD5
:100C00001B1D1A6009E0354A121D126804090123F0
:100C1000A3409A43314B1B1D1A6010BD40B12F49B0
:100C2000091D096841F003012C4A121D116007E0FB
:100C30002A49091D096821F00301284A121D116083
:100C4000704710B53AB1254B1B6801FA00F42343F5
:100C5000224C236006E0214B1B6801FA00F4A343F9
:100C60001E4C236010BD08B5002200921B4A009262
:100C700000F10802009B1A440092009A116008BD1E
:100C800008B500220092154A009200F11402009B60
:100C90001A440092009A116008BD30B50024002368
:100CA000082802D142EA012401E042EA01440B4B48
:100CB00000F120052B441C6030BD08B50146002022
:100CC0000090064800902C2000EB9100009A104400
:100CD00000900098006880B208BD000000740040D9
:100CE00001684FF6FE721140016000210160416011
:100CF0008160C1608D49884208D18C4908394968B2
:100D000041F00F01894A083A51608AE0874914315D
:100D1000884208D185490839496841F0F001834A81
:100D2000083A51607DE081492831884208D17F49E5
:100D30000839496841F470617C4A083A516070E0B2
:100D40007A493C31884208D178490839496841F4E8
:100D50007041764A083A516063E0744950318842E4
:100D600008D172490839496841F470216F4A083A3C
:100D7000516056E06D496431884208D16B490839A9
:100D8000496841F47001694A083A516049E067498D
:100D90007831884208D165490839496841F0706165
:100DA000624A083A51603CE06149884206D1011F1D
:100DB000096841F00F01021F116032E05C491431F3
:100DC000884208D15A49091F096841F0F001584A80
:100DD000121F116025E056492831884208D1544934
:100DE000091F096841F47061514A121F116018E02F
:100DF0004F493C31884208D14D49091F096841F4E7
:100E000070414B4A121F11600BE049495031884232
:100E100007D14749091F096841F47021444A121F4C
:100E20001160704710B50022026847F6F0739A43CC
:100E30000C6A8B6823430C6923434C6923438C69F8
:100E40002343CC6923434C6A23438C6A23431A43CC
:100E50000260CB6843600B6883604B68C36010BD61
:100E60000021016041608160C16001614161816177
:100E7000C161016241628162704721B1026842F042
:100E80000102026004E002684FF6FE731A4002603D
:100E900070471AB103680B43036002E003688B4399
:100EA00003607047416070470146486880B27047F0
:100EB00001460020002201F080531BB11C4B083B6F
:100EC0001A6802E0194B083B1A6802EA01030BB1E9
:100ED000012000E00020704700F0805119B1144952
:100EE000091F086002E0114908394860704701464F
:100EF0000020002201F080531BB10D4B083B1A6803
:100F000002E00A4B083B1A6802EA01030BB1012018
:100F100000E00020704700F0805119B10449091F1A
:100F2000086002E001490839486070470800024043
:100F300008040240002044490860091D0860091D9A
:100F40000860091D086041483F4914310860704736
:100F500000213D498279002A3AD00A461268036886
:100F60009A430B461A600A1D126803689A430B1DC8
:100F70001A60027911440A6803681A430A60324A07
:100F80000832126803689A432F4B08331A601A1DFF
:100F9000126803689A432C4B0C331A604279102A6A
:100FA0000ED11A1F126803681A43274B08331A60C0
:100FB0001A1D126803681A43234B0C331A600DE0A4
:100FC0002149427911440A6803681A430A6005E01E
:100FD000027911440A6803689A430A607047002145
:100FE000016001710C214171002181717047164926
:100FF000103109680143144A1032116070470146EC
:101000000020114A143212680A400AB1012000E09F
:10101000002070470C4914310860704701460020D9
:101020000022094B1B6803EA0102074B14331B68BB
:101030000B4013B10AB1012000E0002070470249C3
:10104000143108607047000000040140FFFF0F00EA
:1010500010B50446CC48844208D10121042000F098
:101060004DFC0021042000F049FC46E0C7488442C2
:1010700008D10121082000F041FC0021082000F0E7
:101080003DFC3AE0C248844208D10121102000F022
:1010900035FC0021102000F031FC2EE0BD488442D8
:1010A00008D10121202000F029FC0021202000F09F
:1010B00025FC22E0B848844208D10121402000F0FC
:1010C0001DFC0021402000F019FC16E0B3488442CA
:1010D00008D10121802000F011FC0021802000F0C7
:1010E0000DFC0AE0AE48844207D10121801500F0D2
:1010F00005FC0021A01500F001FC10BD10B5012178
:10110000084600F0FBFB0021012000F0F7FB10BDBA
:101110002DE9F0410246002500260020002300248E
:10112000002791F803C00CF00F0591F803C00CF0F4
:10113000100CBCF1000F03D091F802C04CEA050579
:1011400091F800C0BCF1000F31D0146800202BE0F2
:101150004FF0010C0CFA00F3B1F800C00CEA0306E2
:101160009E4220D183004FF00F0C0CFA03F7BC43D2
:1011700005FA03FC4CEA040491F803C0BCF1280F03
:1011800006D14FF0010C0CFA00FCC2F814C00AE0C2
:1011900091F803C0BCF1480F05D14FF0010C0CFAD7
:1011A00000FCC2F810C0401C0828D1D31460B1F86C
:1011B00000C0BCF1FF0F34DD546800202EE000F1C8
:1011C000080C4FF0010808FA0CF3B1F800C00CEA63
:1011D00003069E4221D183004FF00F0C0CFA03F757
:1011E000BC4305FA03FC4CEA040491F803C0BCF1CB
:1011F000280F05D100F1080C08FA0CF8C2F8148089
:1012000091F803C0BCF1480F07D100F1080C4FF072
:10121000010808FA0CF8C2F81080401C0828CED348
:101220005460BDE8F0814FF6FF71018002218170AA
:101230000421C17070470246002093680B400BB137
:10124000012000E0002070470146886880B27047A6
:1012500002460020D3680B400BB1012000E00020C3
:1012600070470146C86880B27047016170474161AC
:1012700070470AB1016100E041617047C160704789
:101280004FF480320A43826181618261826982699E
:10129000704702460020434B18684FF68073184091
:1012A00040EA021008433F4B186070473E49C8614E
:1012B0007047F0B50A46002300240021002500F005
:1012C0000046B6F1004F02D1364EF16901E0354ECD
:1012D0007168C0F3034583B200F44016B6F5401FB1
:1012E00008D121F070612F4E766826F070662D4F80
:1012F0007E6012E000F48016B6F5801F06D103264A
:1013000006FA05F4A14341F0706106E0460D36018E
:1013100003FA06F6B14341F0706122B1460D360181
:1013200003FA06F6314300F00046B6F1004F02D151
:101330001C4EF16101E01B4E7160F0BD30B5002222
:101340008B071C0F0F2303FA04F2164B08338C1083
:1013500053F824309343134C08348D1044F825304F
:1013600023468C1053F824308C07240F00FA04F421
:1013700023430C4C08348D1044F8253030BD0A4905
:10138000DC3108607047000000080140000C01409B
:10139000001001400014014000180140001C0140F1
:1013A00000200140000001400000204210B5012152
:1013B000080700F0B0FA00214FF0805000F0ABFABF
:1013C00010BD2A49086270472849086170470146E4
:1013D0000020274A106820F0E000084310607047A2
:1013E0002249A0310860704710B502460020204B0A
:1013F000186820F00300104318601E4B1B6843F070
:1014000004031C4C2360012901D130BF00E020BF40
:10141000184B1B6823F00403164C236010BD1448BE
:10142000006840F00400124908600846006840F077
:10143000020008600F48006840F004000D49086091
:1014400000BF00BF30BF704701460020084A526805
:101450000A400AB1012000E00020704704490968F1
:1014600041EA8001024A11607047000000000E420C
:101470000070004010ED00E0FB48006840F0010003
:10148000F949086008464068F8490840F64948604C
:1014900008460068F6490840F349086008460068B5
:1014A00020F4802008600846406820F4FE00486070
:1014B0000846006820F0A05008604FF47F00886064
:1014C0000020C8627047E849096821F48031E64A83
:1014D00011601146096821F480211160B0F5803F48
:1014E00003D0B0F5802F0ED106E0DF49096841F442
:1014F0008031DD4A116007E0DB49096841F4A02131
:10150000D94A116000E000BF00BF704710B5014626
:101510000022002300204A11012A02D1D24C236864
:1015200006E0022A02D1D04C236A01E0CE4C636A65
:1015300001F01F02012494401C400CB1012000E086
:10154000002010BD38B5002000900024002500BF09
:101550003120FFF7DBFF05460098401C0090009803
:10156000B0F5A06F01D0002DF2D03120FFF7CEFFF3
:1015700008B1012400E00024204638BD01460020C7
:10158000B94A106820F0F80040EAC10010607047C6
:10159000B8490860704702460020B34B586820F4F1
:1015A000741042EA01031843AF4B58607047B149C9
:1015B0000866704702460020AB4BD86AAE4B184015
:1015C00042EA01031843A84BD86270470146002045
:1015D000A54AD06A20F0F0000843D0627047014667
:1015E0000020A14AD06A20F470600843D06270479E
:1015F000A04988667047014600209B4AD06A20F4C3
:1016000070400843D06270479A49086770470146A6
:101610000020954A506820F003000843506070474E
:101620009148406800F00C007047014600208E4A47
:10163000506820F0F00008435060704701460020D9
:10164000894A506820F4E0600843506070470146C2
:101650000020854A506820F4605040EAC100506084
:10166000704729B1804A527A02437F4B5A7204E094
:101670007D4A527A82437C4B5A7270477D49D831F9
:101680000860704701460020774A506820F44040C7
:101690000843506070477949086070477749091DD1
:1016A000086070470021704A203211706E4A82F83B
:1016B0002010012802D004280AD104E001216A4A3E
:1016C0002032117005E00521674A2032117000E0D8
:1016D00000BF00BF70476A49086070476249096AE5
:1016E0000143614A11627047654944390860704797
:1016F0002DE9F041002100220025002300260024CE
:1017000000278C46DFF86081D8F8048008F00C01CF
:1017100021B1042907D0082959D109E0DFF86481F3
:10172000C0F8008058E0DFF85C81C0F8008053E02A
:10173000DFF83481D8F8048008F47012DFF82881CB
:10174000D8F8048008F48035920C0D2A01D0921C40
:1017500000E0062235B9DFF8308102FB08F8C0F856
:10176000008033E0DFF80081D8F82C8008F4803660
:10177000DFF8F480D8F82C8008F00F0808F1010495
:1017800046B9DFF80081B8FBF4F808FB02F8C0F8AE
:1017900000801BE0DFF8D080D8F82C80C8F3031855
:1017A00008F10107DFF8C080D8F82C80C8F30328BF
:1017B00008F1020CDFF8CC80B8FBF7F808FB0CF856
:1017C000B8FBF4F808FB02F8C0F8008004E0DFF88A
:1017D000B480C0F8008000BF00BFDFF88C80D8F86C
:1017E000048008F0F0010909DFF8A08018F8013042
:1017F000D0F8008028FA03F8C0F80480DFF8688089
:10180000D8F8048008F4E061090ADFF8808018F84D
:101810000130D0F8048028FA03F8C0F80880DFF817
:101820004880D8F8048008F46051C90ADFF85C8069
:1018300018F80130D0F8048028FA03F8C0F80C80BA
:10184000DFF82480D8F8048008F44041890BDFF8E1
:10185000408018F80130D0F80C80B8FBF3F8C0F8DD
:101860001080BDE8F0810000001002400000FFF091
:10187000FFFFF6FE00004242F0FFFEFFC4054242B9
:101880008004424200127A0000093D00140000204A
:101890002400002029B1354A52690243334B5A6172
:1018A00004E0324A52698243304B5A61704729B191
:1018B0002E4A926902432D4B9A6104E02B4A9269A9
:1018C00082432A4B9A61704729B1284AD269024360
:1018D000264BDA6104E0254AD2698243234BDA6160
:1018E000704729B1214A926A0243204B9A6204E070
:1018F0001E4A926A82431D4B9A62704729B11B4A65
:10190000D2680243194BDA6004E0184AD268824375
:10191000164BDA60704729B1144A12690243134B1F
:101920001A6104E0114A12698243104B1A61704730
:101930000F49086070470F49C86470470B49C87168
:1019400070470A48406A40F0807008494862704712
:1019500001460020054A92680A400AB1012000E0D1
:101960000020704701498872704700000010024053
:10197000400442420000424210B50446FE48844200
:1019800008D10121C014FFF7B9FF0021E014FFF7CF
:10199000B5FFC4E0B4F1804F08D101210846FFF73C
:1019A000BAFF00210120FFF7B6FFB8E0F3488442F8
:1019B00008D101210220FFF7AEFF00210220FFF72E
:1019C000AAFFACE0EE48844208D101210420FFF7D1
:1019D000A2FF00210420FFF79EFFA0E0E948844217
:1019E00008D101210820FFF796FF00210820FFF70A
:1019F00092FF94E0E448844208D101211020FFF7CF
:101A00008AFF00211020FFF786FF88E0DF4884422C
:101A100008D101212020FFF77EFF00212020FFF7C1
:101A20007AFF7CE0DA48844208D101214014FFF7B4
:101A300065FF00216014FFF761FF70E0D548844224
:101A400009D10121C804FFF759FF00214FF40020FC
:101A5000FFF754FF63E0D048844209D10121080513
:101A6000FFF74CFF00214FF48010FFF747FF56E0CF
:101A7000CA48844209D101214805FFF73FFF0021F0
:101A80004FF40010FFF73AFF49E0C548844208D1FF
:101A900001214020FFF73FFF00214020FFF73BFFDF
:101AA0003DE0C048844208D101218020FFF733FF88
:101AB00000218020FFF72FFF31E0BB48844208D18E
:101AC00001218015FFF727FF0021A015FFF723FF55
:101AD00025E0B648844209D101210804FFF70EFF32
:101AE00000214FF48030FFF709FF18E0B04884422E
:101AF00009D101214804FFF701FF00214FF4003014
:101B0000FFF7FCFE0BE0AB48844208D101218804BA
:101B1000FFF7F4FE00214FF48020FFF7EFFE10BD29
:101B200000220288944B98420ED0994B98420BD0D9
:101B3000B0F1804F08D0914B984205D0904B98421D
:101B400002D0904B984204D14FF68F731A404B88C5
:101B50001A438D4B984207D08C4B984204D04FF6D5
:101B6000FF431A40CB881A4302808B8883850B88F9
:101B70000385814B98420BD0854B984208D08B4B04
:101B8000984205D08A4B984202D08A4B984201D1A4
:101B90000B7A038601238382704770B500240022EC
:101BA0000023058C4FF6FE7635400584028C838831
:101BB000048B4FF68F752C40B51E2C400D882C439E
:101BC000751E2A400D892A434D882A436A4DA84232
:101BD0000BD06F4DA84208D0744DA84205D0744D6B
:101BE000A84202D0734DA84213D14FF6F7752A4090
:101BF0004D892A434FF6FB752A408D882A434FF6BC
:101C0000FF652B404FF6FF552B408D892B43CD8927
:101C10002B4383800483CD888586028470BD70B594
:101C2000002400220023058C4FF6EF763540058412
:101C3000028C8388048B48F6FF752C404FF6FF45D5
:101C40002C400D884FF6FF7606EA05252C434FF60B
:101C5000DF752A400D8906EA05152A434D8806EAF4
:101C600005152A43444DA84202D0494DA8421DD132
:101C70004FF67F752A404D894FF6FF7606EA051527
:101C80002A434FF6BF752A408D8806EA05152A4378
:101C90004FF6FF352B404FF2FF752B408D8906EA3A
:101CA00085052B43CD8906EA85052B438380048374
:101CB000CD880587028470BD70B500240022002302
:101CC000058C4FF6FF6635400584028C8388848B33
:101CD0004FF68F752C404FF6FC752C400D882C4329
:101CE0004FF6FF552A400D894FF6FF7606EA052587
:101CF0002A434D8806EA05252A431F4DA84202D0F3
:101D0000234DA8421DD14FF2FF752A404D894FF651
:101D1000FF7606EA05252A434FF6FF352A408D88CF
:101D200006EA05252A434EF6FF752B404DF6FF7552
:101D30002B408D8906EA05152B43CD8906EA05154A
:101D40002B4383808483CD888587028470BD70B5E2
:101D5000002200230024058C4EF6FF7635400584D2
:101D6000038C8488828B48F6FF752A404FF6FF4526
:101D70002A400D8820E00000002C014000040040B3
:101D800000080040000C004000100040001400401B
:101D900000340140004C014000500140005401401B
:101DA00000180040001C004000200040004001409E
:101DB00000440140004801404FF6FF7606EA052541
:101DC0002A434DF6FF752B400D8906EA05352B4356
:101DD0004D8806EA05352B43FA4DA84202D0FA4D4C
:101DE000A84208D14BF6FF752C408D894FF6FF763F
:101DF00006EA85152C4384808283CD88A0F8405064
:101E0000038470BD828B4FF2FF331A408283828B32
:101E10004FF6FF7303EA01231A4382837047F0B53C
:101E20000C461546002200210026078C4EF6FF7C4A
:101E300007EA0C070784828B018C4FF6FF7707EACD
:101E4000043640F6FF473A404FF6FF7707EA05278A
:101E50003A434FF6FF7707EA03373A43D94FB84280
:101E60000ED0D94FB8420BD0B0F1804F08D0D74F29
:101E7000B84205D0D64FB84202D0D64FB84206D1AC
:101E80004DF6FF77394046F48057394305E047F671
:101E9000FF57394044F48057394382830184F0BDB1
:101EA000828B4FF6F3731A408283828B0A438283BC
:101EB0007047F0B50C461546002200210026078C1D
:101EC0004FF6FF6C07EA0C070784828B018C4FF6F4
:101ED000FF7707EA04264FF60C773A404FF6FF7774
:101EE00007EA03172F433A43B64FB8420ED0B64F16
:101EF000B8420BD0B0F1804F08D0B44FB84205D0F3
:101F0000B34FB84202D0B34FB84206D14FF6FF5795
:101F1000394046F48077394305E04FF2FF573940A6
:101F200044F48077394382830184F0BD028B4FF201
:101F3000FF331A400283028B4FF6FF7303EA01233B
:101F40001A4302837047F0B50C4615460022002163
:101F50000026078C4FF6EF7C07EA0C070784028BFC
:101F6000018C4FF6FF7707EA041640F6FF473A4028
:101F70004FF6FF7707EA03373A434FF6FF7707EA52
:101F800005273A438F4FB8420ED08F4FB8420BD03F
:101F9000B0F1804F08D08D4FB84205D08C4FB84279
:101FA00002D08C4FB84206D14FF6DF77394046F069
:101FB0001007394305E04FF65F77394044F01007CA
:101FC000394302830184F0BD028B4FF6F3731A404C
:101FD0000283028B0A4302837047F0B50C46154614
:101FE00000220021068C4FF6FE773E400684028BCD
:101FF000018C4FF60C7632407E1C06EA03162E4307
:102000003243704EB0420ED06F4EB0420BD0B0F1A2
:10201000804F08D06D4EB04205D06D4EB04202D018
:102020006C4EB04206D14FF6FD76314044F00106C9
:10203000314305E04FF6F576314044F00106314377
:1020400002830184F0BD70B505460C465D488542AB
:102050000ED05D4885420BD0B5F1804F08D05B486B
:10206000854205D05A48854202D05A48854200D15F
:1020700000E000BF208850B92389A28861882846E3
:10208000FFF7ABFFE1882846FFF79EFF25E0208899
:1020900004280AD12389A28861882846FFF753FFC4
:1020A000E1882846FFF742FF17E0208808280AD178
:1020B0002389A28861882846FFF7FBFEE18828462D
:1020C000FFF7EEFE09E02389A28861882846FFF722
:1020D000A6FEE1882846FFF795FE70BD2DE9F04188
:1020E00005460C4600260127608808B9022600E054
:1020F0000026A088012801D1022700E001272088BE
:10210000A0B92389A28861882846FFF766FFE18885
:102110002846FFF759FF23893A4631462846FFF7FC
:1021200012FFE1882846FFF701FF13E02389A28808
:1021300061882846FFF707FFE1882846FFF7F6FE8B
:1021400023893A4631462846FFF747FFE18828466B
:10215000FFF73AFFBDE8F0810A884B881A438B8865
:102160001A43CB881A430B891A434B891A438B892C
:102170001A43A0F8442070474FF6FF718180002178
:102180000180C1804180017270470021018041803F
:102190008180C180018141818181C181704700219D
:1021A00001804180012181800021C180018170472F
:1021B0000021018041808180C18001814181818134
:1021C00070470000002C0140003401400004004032
:1021D00000080040000C004021B1028842F00102DA
:1021E000028004E002884FF6FE731A4002807047B6
:1021F00031B1B0F8442042F40042A0F8442005E098
:10220000B0F84420C2F30E02A0F8442070471AB17F
:1022100083890B43838102E083898B4383817047E9
:102220008182704741EA0203A0F8483070471AB132
:1022300083890B43838102E083898B4383817047C9
:1022400001894FF6F8721140018170470A4600215A
:1022500001894FF68F73194011430181704730B5E2
:1022600004460D4629462046FFF7F0FF208940F03E
:102270000700208130BD2DE9F04104460D46164689
:102280001F46602D06D13B46012231462046FFF70E
:102290005AFE05E03B46012231462046FFF79DFEEF
:1022A00029462046FFF7D2FF208940F00700208111
:1022B000BDE8F08130B50C4600210189C9B24FF666
:1022C000FF7505EA0325154325432943018130BDE8
:1022D0002DE9F04105460E46174698460024434630
:1022E0003A4631462846FFF7E5FF2C894FF6F8704D
:1022F000044044F007044FF68F70044044F070042B
:102300002C81BDE8F081F0B504460D4616461F4607
:102310003B46324629462046FFF7CCFF208940F451
:1023200080402081F0BD0185828270470A460021ED
:1023300001884FF68F731940114301807047F0B543
:102340000C4615461E460021002200230189028BFF
:10235000038C4FF6F877394021434FF6FC473A405B
:1023600040F201173A434FF6DD773B404FF6FF77D7
:1023700007EA06172F433B43018102830384F0BD24
:102380000A460021018B4FF68F73194011430183D8
:1023900070470A460021018B48F6FF7319404FF63B
:1023A000FF7303EA02231943018370470A460021A1
:1023B000818B4FF68F7319401143818370470A4612
:1023C0000021818B48F6FF7319404FF6FF7303EA33
:1023D000022319438183704721B1028842F08002B1
:1023E000028004E002884FF67F731A400280704733
:1023F00021B1828842F00402828004E082884FF694
:10240000FB731A408280704721B1828842F0080233
:10241000828004E082884FF6F7731A40828070470A
:1024200021B1828842F00102828004E082884FF666
:10243000FE731A40828070470A460021018B4FF6D6
:10244000F77319401143018370470A460021018B3D
:102450004FF2FF7319404FF6FF7303EA022319434B
:10246000018370470A460021818B4FF6F7731940AC
:102470001143818370470A460021818B4FF2FF731D
:1024800019404FF6FF7303EA022319438183704713
:102490000A460021018B4FF6FB731940114301835B
:1024A00070470A460021018B4FF6FF3319404FF663
:1024B000FF7303EA02231943018370470A46002190
:1024C000818B4FF6FB7319401143818370470A4695
:1024D0000021818B4FF6FF3319404FF6FF7303EA5B
:1024E00002231943818370470A460021018B4FF66E
:1024F0007F7319401143018370470A460021018B05
:10250000C1F30E014FF6FF7303EA0223194301835F
:1025100070470A460021818B4FF67F7319401143A3
:10252000818370470A460021818BC1F30E014FF66B
:10253000FF7303EA02231943818370470A4600218F
:10254000018C4FF6FD7319401143018470470A4610
:102550000021018C4FF6F773194011430184704735
:102560000A460021018C4FF6DF7319404FF6FF73C6
:1025700003EA02131943018470470A460021018CC3
:102580004FF67F7319404FF6FF7303EA02131943A6
:10259000018470470A460021018C4FF6FF53194011
:1025A0004FF6FF7303EA02231943018470470A467A
:1025B0000021018C4FF2FF7319404FF6FF7303EABD
:1025C00002231943018470470A460021018C4DF60D
:1025D000FF7319404FF6FF7303EA02331943018476
:1025E000704730B5002301248C40A3B2048C9C4377
:1025F0000484048C02FA01F5ADB22C43048430BD8E
:1026000030B5002304248C40A3B2048C9C43048482
:10261000048C02FA01F5ADB22C43048430BD70B5D0
:102620000346002000241846183001258D40ACB226
:102630001D8CA5431D8409B1082909D100EB610057
:10264000056825F0700505600568154305600EE016
:102650000D1FC5F34E052844056825F4E0450560C7
:1026600005684FF6FF7606EA02263543056070BD21
:1026700021B1028842F00202028004E002884FF693
:10268000FD731A400280704721B1028842F00402B3
:10269000028004E002884FF6FB731A400280704704
:1026A00021B1828842F08002828004E082884FF665
:1026B0007F731A408280704702884FF6F7731A4082
:1026C000028002880A430280704782884FF68F7327
:1026D0001A40828082880A438280704702894FF6BE
:1026E000F8731A40028102890A4302817047028905
:1026F0004FF67F731A40028102890A4302817047B4
:102700008184704781857047818670470187704753
:1027100081877047A0F84010704702884FF6FF434A
:102720001A40028002880A43028070470146888E60
:1027300070470146088F70470146888F70470146F1
:10274000B1F8400070470146888C70470146088DFB
:10275000704702460020138A0B400BB1012000E0B5
:1027600000207047CA430282704730B502460020FD
:1027700000230024158A05EA0103958905EA01046E
:1027800013B10CB1012000E0002030BDCA43028229
:102790007047000010B50446FB48844209D101216E
:1027A0008803FFF7ABF800214FF48040FFF7A6F84D
:1027B00032E0F648844209D101214804FFF7ABF822
:1027C00000214FF40030FFF7A6F825E0F0488442DE
:1027D00009D101218804FFF79EF800214FF48020E1
:1027E000FFF799F818E0EB48844209D10121C804A9
:1027F000FFF791F800214FF40020FFF78CF80BE071
:10280000E548844208D101210805FFF784F800213A
:102810004FF48010FFF77FF810BD2DE9F04786B028
:1028200005460E460024A24600BFA1460027B089F7
:1028300000B100BF2F462C8A4CF6FF700440F08890
:1028400004432C82AC894EF6F3100440B0883189E1
:102850000843718908430443AC81AC8A4FF6FF40BA
:102860000440B0890443AC8201A8FEF741FFC6488A
:10287000874202D1DDF810A001E0DDF80CA0A889A4
:1028800000F4004040B10AEBCA0000EB0A103168C6
:102890004900B0FBF1F807E00AEBCA0000EB0A10B0
:1028A00031688900B0FBF1F86420B8FBF0F0040156
:1028B0002009642101FB1089A88900F4004040B17F
:1028C000322000EBC900B0FBF1F000F00700044338
:1028D00008E0322000EB09106421B0FBF1F000F0B9
:1028E0000F0004432C8106B0BDE8F0874FF4165169
:1028F000016000218180C18001810C214181002182
:102900008181704710B502460020108A4FF2FF0304
:1029100018400B884C8823438C882343CC8823435E
:102920001843108210BD0021018041808180C18048
:10293000704721B1828942F40052828104E0828989
:102940004DF6FF731A4082817047F0B503460024AC
:1029500000260025002040F66A17B94200D100BFCA
:102960001846C1F3421401F01F06012707FA06F5C5
:10297000012C01D10C3004E0022C01D1103000E018
:1029800014301AB107682F43076002E00768AF43AD
:102990000760F0BD1AB1838A0B43838202E0838A09
:1029A0008B4383827047028A4FF6F0731A4002828B
:1029B000028A0A430282704782894FF2FF731A40EB
:1029C000828182890A438281704721B1828942F0E3
:1029D0000202828104E082894FF6FD731A408281EF
:1029E0007047028A4FF6DF731A400282028A0A4356
:1029F0000282704721B1028A42F48042028204E0DE
:102A0000028A4BF6FF731A4002827047C1F3080234
:102A10008280704701468888C0F30800704781892A
:102A200041F0010181817047028BD2B20283028B97
:102A300042EA012202837047028B02F47F42028342
:102A4000028B0A430283704721B1828A42F020023E
:102A5000828204E0828A4FF6DF731A4082827047D6
:102A600021B1828A42F01002828204E0828A4FF60B
:102A7000EF731A408282704721B1828A42F00802C5
:102A8000828204E0828A4FF6F7731A40828270478E
:102A900021B1828942F40042828103E08289C2F33B
:102AA0000E028281704721B1828A42F400628282E2
:102AB00004E0828A4FF2FF731A4082827047828A52
:102AC0004FF6FB731A408282828A0A4382827047E1
:102AD00021B1828A42F00202828204E0828A4FF6A9
:102AE000FD731A408282704702460020B1F5007FD4
:102AF00000D100BF13880B400BB1012000E0002083
:102B0000704701F40072B2F5007F00D100BFCA43E4
:102B10000280704770B50246002400230025002083
:102B200040F66A16B14200D100BFC1F3421501F070
:102B30001F03012606FA03F3012D02D196893340C3
:102B400006E0022D02D1168A334001E0968A334016
:102B50000C12012606FA04F41688344013B10CB1A5
:102B6000012000E0002070BD10B50022002340F6D7
:102B70006A14A14200D100BF0A1201249440A3B2FA
:102B8000DC43048010BD00000038014000440040D8
:102B900000480040004C00400050004010B5044682
:102BA000FE48844209D101214806FEF7B4FE002107
:102BB0004FF00070FEF7AFFE08E001218806FEF737
:102BC000AAFE00214FF08060FEF7A5FE10BD30B5D3
:102BD000024600200023146824F0020414601468E4
:102BE00044F00104146000E05B1C546804F001042C
:102BF0001CB94FF6FF74A342F6D1546804F00104E7
:102C00000CB900206CE08C79012C04D1146844F0DC
:102C10008004146003E0146824F080041460CC790C
:102C2000012C04D1146844F04004146003E01468DB
:102C300024F0400414600C7A012C04D1146844F090
:102C40002004146003E0146824F0200414604C7A1B
:102C5000012C04D1146844F01004146003E01468DB
:102C600024F0100414608C7A012C04D1146844F010
:102C70000804146003E0146824F008041460CC7A9B
:102C8000012C04D1146844F00404146003E01468B7
:102C900024F0040414608C78A407CD7844EA056419
:102CA0000D7944EA05444D7944EA05540D886D1EBA
:102CB0002C43D461146824F001041460002300E064
:102CC0005B1C546804F001041CB14FF6FF74A3426E
:102CD000F6D1546804F001040CB1002000E001209A
:102CE00030BD10B50021837A012202FA03F1AC4A0B
:102CF000126842F00102AA4B1A60A94A1C321268FB
:102D00008A43A74B1C331A60027BCAB9A44A0C320F
:102D100012688A43A24B0C331A604288C38842EA85
:102D200003439F4A4032847A42F8343002888388D1
:102D300042EA03439A4A4032847A02EBC402536067
:102D4000027B012A19D1964A0C3212680A43944B2D
:102D50000C331A604288038842EA0343904A4032A7
:102D6000847A42F83430C288838842EA03438C4A2A
:102D70004032847A02EBC4025360C27A3AB9884A7C
:102D8000121D12688A43864B1B1D1A6006E0844A96
:102D9000121D12680A43824B1B1D1A60028932B948
:102DA0007F4A143212688A437D4B14331A600289B9
:102DB000012A06D17A4A143212680A43784B143336
:102DC0001A60427B012A06D1754A1C3212680A43F6
:102DD000734B1C331A60724A126822F00102704B66
:102DE0001A6010BD00218171C1710172417281723E
:102DF000C1728170C17003210171022141710121F1
:102E0000018070476649096841F00101644A116018
:102E10001146096843F60E729143614A11601146EA
:102E2000096841EA002111601146096821F0010199
:102E30001160704721B1026842F48032026003E001
:102E4000026822F4803202607047E1B1026842F009
:102E5000800202604FF4C272125842F480734FF441
:102E6000C27213504FF4CA72125842F480734FF476
:102E7000CA7213504FF4D272125842F480734FF456
:102E8000D27213501BE0026822F0800202604FF4FD
:102E9000C272125822F480734FF4C27213504FF46E
:102EA000CA72125822F480734FF4CA7213504FF44E
:102EB000D272125822F480734FF4D27213507047BA
:102EC00010B502460020936803F08063B3F1806F71
:102ED00000D110E0936803F00063B3F1006F01D1FB
:102EE000012008E0936803F08053B3F1805F01D1C3
:102EF000022000E00420042879D002F5C07303EB1F
:102F000000131B6803F0010402F5C07303EB001308
:102F10001C600B7A7BB94B7A0C8843EA445302F568
:102F2000C07404EB00142468234302F5C07404EB5E
:102F30000014236010E00B7A4C6843EAC4034C7A17
:102F4000234302F5C07404EB00142468234302F504
:102F5000C07404EB001423608B7A03F00F038B72B0
:102F600002F5C07303EB00135B6823F00F0402F556
:102F7000C07303EB00135C6002F5C07303EB001336
:102F80005B688C7A234302F5C07404EB0014636021
:102F90008B7B1C064B7B44EA034403E00064004047
:102FA000006600400B7B44EA0323CC7A234302F5FE
:102FB000C07404EB0014A3608B7C1C064B7C44EAB9
:102FC00003440B7C44EA0323CC7B234302F5C07407
:102FD00004EB0014E36002F5C07303EB00131B68FD
:102FE00043F0010402F5C07303EB00131C6010BD35
:102FF00010B50246002321B1012907D002290FD1C3
:1030000009E09068F94C00EA04030BE09068F84C82
:1030100000EA040306E09068F64C00EA040301E0CD
:10302000002300BF00BFF44C181BA34216D007DCDE
:1030300083B16FF08060184470B1022818D111E09C
:10304000B0F5007F10D0ED4C204448B1B0F5003F02
:103050000ED10BE002230DE000230BE0002309E07A
:10306000002307E0012305E0012303E0012301E041
:10307000002300BF00BFD8B210BD21B1012907D085
:1030800002290FD109E0826842F0800282600AE0E2
:10309000826842F40042826005E0826842F40002E5
:1030A000826000E000BF00BF704710B500F5D87324
:1030B00003EB01131B6803F004031372137A53B973
:1030C00000F5D87303EB01131B6840F2FF7404EAA8
:1030D0005353136009E000F5D87303EB01131B6829
:1030E0006FF0604404EAD303536000F5D87303EB38
:1030F00001131B6803F00203537200F5D87303EB4E
:1031000001135B6803F00F03937200F5D87303EBB0
:1031100001135B681B0AD37400F5D87303EB01132A
:103120009B68D37200F5D87303EB01139B681C0AEC
:10313000147300F5D87303EB01139B681C0C5473D4
:1031400000F5D87303EB01139B681B0E937300F516
:10315000D87303EB0113DB68D37300F5D87303EB6B
:103160000113DB681C0A147400F5D87303EB011318
:10317000DB681C0C547400F5D87303EB0113DB6897
:103180001B0E937421B9C36843F02003C36003E0AE
:10319000036943F02003036110BD21B9C26842F006
:1031A0002002C26003E0026942F02002026170471F
:1031B0000246002019B9D36803F0030006E0012994
:1031C00003D1136903F0030000E00020704710B53D
:1031D00002460B4600204FF6FF71BBB9146824F07D
:1031E000020444F00104146000E0491E546804F035
:1031F0000304012C01D00029F7D1546804F0030422
:10320000012C01D0002032E0012030E0012B13D14D
:10321000146824F00304146000E0491E546804F0AC
:1032200003040CB10029F8D1546804F003040CB174
:1032300000201CE001201AE0022B17D1146824F0B2
:10324000010444F00204146000E0491E546804F0D4
:103250000304022C01D00029F7D1546804F00304C0
:10326000022C01D0002002E0012000E0002010BD6F
:10327000014600200A6822F0010242F002020A60C0
:103280004A6802F00302022A00D101207047014679
:103290004FF6FF7200200B6823F002030B6000E082
:1032A000521E4B6803F00203022B01D1002AF7D112
:1032B0004B6803F00203022B00D001207047014647
:1032C00000208A6902F070007047014600208A6978
:1032D000100E7047014600208A69C2F3074070470C
:1032E0001AB143690B43436102E043698B43436175
:1032F000704710B50246002001F4700343B1936992
:10330000C1F3130423400BB101202DE000202BE07A
:1033100001F0807343B15368C1F3130423400BB130
:10332000012021E000201FE001F0006343B1936819
:10333000C1F3130423400BB1012015E0002013E07A
:1033400001F0007343B1D368C1F3130423400BB100
:10335000012009E0002007E01369C1F313042340B2
:103360000BB1012000E0002010BD0022244B994247
:1033700002D10023836111E0C1F3130201F0007355
:103380000BB1C2600AE001F080630BB1026105E09D
:1033900001F000630BB1826000E0426070470246BA
:1033A000002002EA01030BB1012000E00020704779
:1033B00070B504460D46002660692840002872D08A
:1033C000B5F5807F69D01DDC082D42D006DC012DCB
:1033D0002DD0022D31D0042D7FD134E0102D3ED0E0
:1033E000202D42D0402D78D145E00000030000049C
:1033F0000003000800000310000100080001FFF7AF
:103400007000F030B5F5004F61D009DCB5F5007FF4
:103410004AD0B5F5806F4DD0B5F5006F5DD150E065
:10342000B5F5803F2DD0B5F5003F56D12FE0A0680F
:103430005549FFF7B4FF064651E0E0680321FFF766
:10344000AEFF06464BE0E0680821FFF7A8FF0646FE
:1034500045E0E0681021FFF7A2FF06463FE0206943
:103460000321FFF79CFF064639E020690821FFF79A
:1034700096FF064633E020691021FFF790FF0646CD
:103480002DE060680821FFF78AFF064627E06068A4
:103490001021FFF784FF064621E0A0690121FFF714
:1034A0007EFF06461BE01BE0A0690221FFF777FFC5
:1034B000064614E0A0690421FFF771FF06460EE0FE
:1034C0000BE0A0697021FFF76AFF064607E060681D
:1034D0000421FFF764FF064601E0002600BF00E07C
:1034E0000026304670BDB1F5007F3AD00FDC2029B0
:1034F00028D006DC01291CD004291DD0082940D180
:103500001DE0402921D0B1F5807F3AD126E0B1F508
:10351000004F31D006DCB1F5806F25D0B1F5006FDA
:103520002FD124E0B1F5803F12D0B1F5003F28D172
:1035300011E0154A826025E00822C26022E01022D4
:10354000C2601FE0082202611CE01022026119E043
:103550000822426016E01022426013E0042242601A
:1035600010E0042242600DE0042242600AE00022E2
:1035700082610422426005E00022826104224260EE
:1035800000E000BF00BF70470101010001460020BC
:10359000FE4A106800F03800084310607047FB498D
:1035A000096821F00801F94A1160114609680143D0
:1035B00011607047F549096821F01001F34A116064
:1035C00011460968014311607047F148EF494860AE
:1035D000F04848607047EE48EC494860ED48486064
:1035E0007047EA48006940F08000E8490861704788
:1035F000E648006940F08000E44908617047042013
:10360000E249C96801F0010109B101200EE0DF497A
:10361000C96801F0040109B1022007E0DB49C9686B
:1036200001F0100109B1032000E00420704700B54B
:1036300002460423FFF7E3FF034603E0FFF7DFFF43
:103640000346521E012B01D1002AF7D102B90523EE
:10365000184600BD30B5044604254FF43020FFF76E
:10366000E6FF0546042D17D1C848006940F0020066
:10367000C649086108464461006940F0400008619D
:103680004FF43020FFF7D3FF0546C048006941F6EC
:10369000FD710840BD490861284630BD10B50424BD
:1036A0004FF43020FFF7C3FF0446042C16D1B7486F
:1036B000006940F00400B54908610846006940F01F
:1036C000400008614FF43020FFF7B1FF0446AF48D7
:1036D000006941F6FB710840AC490861204610BD05
:1036E00000B502460423FFF78AFF034603E0FFF715
:1036F00086FF0346521E012B01D1002AF7D102B9E1
:103700000523184600BD10B504244FF43020FFF700
:10371000E7FF0446042C16D19C48006940F00400E1
:103720009A4908610846006940F0400008614FF47A
:103730003020FFF7D5FF04469448006941F6FB713D
:10374000084092490861204610BD00208F49C96990
:1037500001F0020109B1012000E00020704730B5FE
:10376000A5250424FFF7F1FF00B100254FF4302018
:10377000FFF75DFF0446042C3AD1854883498860F1
:10378000844888600846006940F0200008610846C7
:10379000006940F0400008614FF43020FFF747FF18
:1037A0000446042C1BD17948006941F6DF710840BA
:1037B000764908610846006940F0100008617648C3
:1037C0000580E002FFF733FF0446052C10D06F4858
:1037D000006941F6EF7108406C49086108E0052C6A
:1037E00006D06A48006941F6EF71084067490861F0
:1037F000204630BD78B506460C46042500200090D2
:10380000E802FFF714FF0546042D24D15F48006944
:1038100040F001005D4908613480E802FFF707FFCE
:103820000546042D10D1B01C0090200C0099088092
:10383000E802FFF7FCFE05465448006941F6FE71B8
:1038400008405249086106E05048006941F6FE719F
:1038500008404E490861284678BD70B504460D46BB
:103860000426F002FFF7E3FE0646042E11D1474876
:10387000006940F00100454908612580F002FFF72A
:10388000D6FE06464148006941F6FE7108403F49B0
:103890000861304670BD70B505460E460424E0024E
:1038A000FFF7C5FE0446042C17D139483749886014
:1038B000384888600846006940F0100008612E8092
:1038C000E002FFF7B4FE0446052C06D02F4800693D
:1038D00041F6EF7108402D490861204670BD2DE981
:1038E000F04304464FF6FF763746B046B14604250E
:1038F000E443E6B2C4F30727C4F307484FEA146968
:10390000E802FFF794FE0546042D49D120481F49DF
:103910008860204888600846006940F0100008610F
:10392000FF2E06D01C4808300680E802FFF77FFE15
:103930000546042D08D1FF2F06D017480A3007800E
:10394000E802FFF774FE0546042D0AD1B8F1FF0F17
:1039500007D011480C30A0F80080E802FFF767FE9E
:103960000546042D0AD1B9F1FF0F07D00A480E30E1
:10397000A0F80090E802FFF75AFE0546052D0FD08B
:103980000248006941F6EF71084007E0002002405C
:1039900023016745AB89EFCD00F8FF1F6649086139
:1039A0002846BDE8F08330B5054604244FF43020A6
:1039B000FFF73DFE0446042C41D160485E49886013
:1039C0005F4888600846006940F0200008610846AA
:1039D000006940F0400008614FF43020FFF727FEF7
:1039E0000446042C22D15448006941F6DF71084096
:1039F000514908610846006940F0100008611DB196
:103A000000205049088002E0A5204E4908804FF46C
:103A10003020FFF70CFE0446052C10D04648006904
:103A200041F6EF7108404449086108E0052C06D0D2
:103A30004148006941F6DF7108403F49086120466E
:103A400030BDF0B505460E46174604243B483A49BA
:103A500088603B488860E002FFF7E9FD0446042CDB
:103A600019D13548006940F010003349086147F02A
:103A7000F800304328433349891C0880E002FFF7EF
:103A8000D6FD0446052C06D02B48006941F6EF719F
:103A90000840294908612046F0BD2748C0698008D0
:103AA00070472548006A704700202349096801F0E3
:103AB000200109B1012000E00020704729B11E4A11
:103AC000126902431C4B1A6104E01B4A12698243CB
:103AD000194B1A61704701460020012908D1164A86
:103AE000D26902F001020AB1012008E0002006E0DC
:103AF000114AD2680A400AB1012000E00020704754
:103B00000D49C860704704200B49C96801F00101E4
:103B100009B101200EE00849C96801F0040109B1AA
:103B2000022007E00449C96801F0100109B103202F
:103B300000E0042070470000002002402301674598
:103B4000AB89EFCD00F8FF1F2DE9F04104460D468B
:103B500016461F464FF480418648FDF786FB86498E
:103B6000887801F0C6F9282002F01FFB4FF480711D
:103B70008248FDF77AFB01F0D2FD0320BDE8F08119
:103B80002DE9F04F87B08046894692469B46002635
:103B9000002704F0B5FB7AA004F04EFC4FF400417E
:103BA0007448FDF762FB7449087801F0A2F914200B
:103BB00002F0FBFA4FF480717048FDF756FB01F0FC
:103BC000AEFD4FF461707549088001A804F07FFBD9
:103BD000DDE90101CDE9050100BF01A804F077FB93
:103BE000DDE90101CDE9030104F0EAFB012809D177
:103BF000002004F0E2FB4FF400415E48FDF737FB84
:103C0000032469E006990498401AC0EB00109DF85F
:103C10000D1001EB80009DF81510401AC0EB00104C
:103C20009DF80C1001EB80009DF81410401A4AD04A
:103C30005A480088401E59490880DDE90301CDE952
:103C400005015648008828B1544800884EF6602186
:103C5000884206DB4FF400414648FDF708FB032489
:103C60003AE001F0F0FE05464C48008840F2CC6195
:103C7000884228DC49480088052190FBF1F201FBCD
:103C8000120048B946B901F0DEFE0546322D02DACF
:103C900002F065FD00E0012640480088B0F5D26FD3
:103CA00011DC3E480088052190FBF1F201FB120077
:103CB00038B937B901F0C7FE0546642D02DA02F0C3
:103CC0004EFD00E0012704F02DFB012803D0022463
:103CD00000F0A8FB00E080E700BF204607B0BDE889
:103CE000F08F2DE9F0412E49488805F0CFFB0646BC
:103CF0002C49088805F0CAFB0746002003F0BCF9F0
:103D000004F0EAFA0123032239463046FFF738FF70
:103D1000032803D1022004F033FA07E004F002FB89
:103D200020B100F07FFB042004F02AFA04F0FAFA34
:103D3000022819D11A49888805F0A8FB05460024F5
:103D40000123032221462846FFF7FEFE032808D060
:103D500004F0E8FA40B100F065FB042004F010FA2A
:103D600002E0032004F00CFABDE8F0810B48008863
:103D700070470000000801404E050020000C014083
:103D80006469616E68756F20666972737420746906
:103D90006D65213C2D2D0D0A00000000280000203B
:103DA00056050020C007002010B500F03BFB0020A6
:103DB00004F0E6F910BD00000020FC4908707047CF
:103DC00010B50120FA490870322001F0E8F8082106
:103DD000F848FDF74AFA01F0DFFB01F032FC10BDB4
:103DE000F348007870472DE9F04F91B0002008901B
:103DF000012007904FF0000A0020EC490870EC49C0
:103E00000870ED4908700222072100F031FF0222FC
:103E10000621002000F02CFFE8A004F00DFB022199
:103E2000E448FDF722FA04F071FA022803D90020D1
:103E3000E949087002E00120E7490870ACE203F0AC
:103E40009AFC069005F08EF980468946E349C888B9
:103E500005F01CFB039005F085F942464B46CDE981
:103E6000040105F053F809D2052004F0B3F9012844
:103E70000CD10021052004F058FA07E0052004F0D9
:103E8000A9F918B90121052004F04FFAD34908898E
:103E900005F0FCFA039005F065F942464B46CDE982
:103EA000040104F0F9FE09D2062004F093F9012878
:103EB0000CD10021062004F038FA07E0062004F0B7
:103EC00089F918B90121062004F02FFA032000F027
:103ED000FAFDCDE9040104F061FC8346C048007896
:103EE00005F0D4FA5946069005F0E4FA4CD8B248E9
:103EF0000078002848D1BB48007850B905A804F0E4
:103F0000E6F9B948DDE9051206C00120B549087097
:103F10003AE005A804F0DBF9DDE90501CDE90B0184
:103F2000B1490C984968401AC0EB00109DF82D105B
:103F300001EB8000AC494978401AC0EB00109DF8B5
:103F40002C1001EB8000A8490978401A08D001F034
:103F500012F805A804F0BBF9A348DDE9051206C074
:103F600001F049F8A149097888420DDC9F480078A2
:103F700000F0BFFF0120904908704FF6FF709A498A
:103F80004860FF20487008700798012809D105A8EB
:103F900004F09DF99648DDE9051206C0002007905F
:103FA00043E00898B8BB05A804F091F9DDE90501E4
:103FB000CDE909018E490A984968401AC0EB001002
:103FC0009DF8251001EB800089494978401AC0EB23
:103FD00000109DF8241001EB800085490978401AF3
:103FE00023D00AF101001FFA80FA05A804F06FF946
:103FF0007F48DDE9051206C0BAF1780F15DB0A200B
:104000009AFBF0F100FB11A028B901F01CFD6E280D
:1040100002DA02F0A4FB08E0012008904FF6FF70DE
:1040200073494860FF2048700870042000F04BFD81
:1040300006460F465E48007801287CD1032004F034
:10404000C9F8012812D100226A4B3046394604F0E3
:1040500023FE41D20021032004F067F905A804F0F3
:1040600036F9DDE90501CDE90F0135E00022614BAC
:104070003046394604F04AFF04D80121032004F0F9
:1040800054F929E005A804F022F9DDE90501CDE99C
:104090000D0110990E98401AC0EB00109DF83510D4
:1040A00001EB80009DF83D10401AC0EB00109DF818
:1040B000341001EB80009DF83C10401A1E280BD3F1
:1040C0004DA004F0B9F900203949087000F0AAF9B0
:1040D000042004F055F864E10022514B3046394683
:1040E00004F0DAFD08D8042004F074F810BB0121B4
:1040F000042004F01AF942E000224A4B30463946C7
:1041000004F0CAFD0AD2042004F064F8012836D174
:104110000021042004F009F931E00CE000202449DA
:104120000870042004F056F8012828D1002104204A
:1041300004F0FBF823E000223B4B3046394604F004
:10414000E5FE1CD824480078012813D10221194823
:10415000FDF78BF804211748FDF787F800201E496A
:10416000087001201149087041F28831042001F0E3
:10417000E2FE04E00D48007808B9FFF721FE0020B8
:1041800000F0A1FC04460D4609480078012872D1D0
:10419000142001F0EDF80022244B2046294604F0BB
:1041A0007BFD45D8322000F0FAFEB2E02D00002061
:1041B0002E00002000100140300000206265676979
:1041C0006E20746F2072756E6E696E67213C2D2DA6
:1041D0002D2D2D0D0A0000002C000020C00700200E
:1041E0005C0500202F000020340000205D05002029
:1041F0003C000020000024406169722070726573E9
:104200007320686173206265656E206C6F7720662D
:104210006F7220333073213C2D2D0D0A00000000F9
:104220000040504000C0524000004440000039406F
:104230000022654B2046294604F02EFD1CD80022A2
:10424000624B2046294604F0A3FE0022604BCDE9D4
:10425000000104F05DFD00225E4BCDE9020104F097
:1042600083FBCDE9040104F0D7FC3230C0B20690E4
:1042700000F095FE4DE049E00022574B20462946CC
:1042800004F00AFD1BD800224F4B2046294604F0BB
:104290007FFE0022514BCDE9000104F039FD0022E0
:1042A0004F4BCDE9020104F05FFBCDE9040104F0BE
:1042B000B3FC5F30C0B2069000F071FE29E000222E
:1042C000484B2046294604F0E7FC1BD80022424B0D
:1042D0002046294604F05CFE0022434BCDE9000154
:1042E00004F016FD0022414BCDE9020104F03CFB35
:1042F000CDE9040104F090FC8D30C0B2069000F0CE
:104300004EFE06E0C82000F04AFE02E0002000F069
:1043100046FE0022364B2046294604F0BDFC0DD84F
:10432000002003F057FF00BB4FF400513148FCF769
:104330009EFF0121002003F0F8FF2DE000222E4B0C
:104340002046294604F0A8FC10D8002003F042FFC4
:10435000012821D141032748FCF787FF27A004F05B
:104360006BF80021084603F0E0FF15E04FF4005120
:104370002048FCF77AFF002003F02CFF012807D12A
:1043800041031C48FCF771FF0021084603F0CDFFF4
:10439000042003F0F5FE04E003F0C4FF03283FF41B
:1043A0004EAD00BF00201D4908701D490870032252
:1043B000072100F05DFC03220621002000F058FCDC
:1043C00011B0BDE8F08F000000004440000039400B
:1043D0000000284000001040000049400000374025
:1043E0000000144000004E4000002E400000084035
:1043F000000051400010014000805140537461633F
:104400006B2074656D70206162726F7665207072CA
:104410006F74656374206C696E6521002D00002047
:104420002E00002010B54FF400710F48FCF71FFF5D
:104430004FF480710C48FCF71AFF4FF400410B4811
:10444000FCF715FF4FF480410848FCF710FF4FF4CC
:1044500000410748FCF70BFF00F09CFD03F062FFF2
:1044600008B101F0C4FE10BD000C0140000801407D
:104470000010014000B593B001210846FDF70AFA8B
:1044800001214FF40770FDF712FA4FF40040FDF7D9
:10449000F9F800208DF84B00CF20ADF8480012A9A4
:1044A000FE48FCF735FE00208DF84B000320ADF8E8
:1044B000480012A9FA48FCF72BFE00208DF84B00AB
:1044C0000120ADF8480012A9F648FCF721FE0B20A8
:1044D0008DF8040002208DF8050001208DF80600FB
:1044E0008DF8070001A8FCF742F8EF48FCF7F8FB4D
:1044F000EE480290EE4803900020049009200590B9
:10450000002006908020079080000890800009908D
:1045100020200A9000020B9000200C9002A9E24893
:10452000FCF780FC0121E048FCF7A7FC01220221F6
:10453000DD48FCF7AEFCDD484C38FCF781F8002084
:104540000D9001208DF838008DF839004FF460206F
:104550000F900020109009208DF844000DA9D34839
:104560004C38FCF794F8072301220A21CF484C3835
:10457000FCF725F9072302220021CC484C38FCF730
:104580001EF9072303220121C8484C38FCF717F90C
:10459000072304220921C5484C38FCF710F90723EA
:1045A00005220221C1484C38FCF709F907230622ED
:1045B0000321BE484C38FCF702F907231A460621AE
:1045C000BA484C38FCF7FBF8072308221946B748CD
:1045D0004C38FCF7F4F8072309220821B3484C387B
:1045E000FCF7EDF80121B1484C38FCF787F80121C0
:1045F000AE484C38FCF777F8AC484C38FCF795F8E7
:1046000000BFAA484C38FCF795F80028F9D1A74814
:104610004C38FCF799F800BFA4484C38FCF799F8DF
:104620000028F9D10121A1484C38FCF79CF813B0BF
:1046300000BD70B59F488468C168002213462046BB
:1046400004F02AFB04D20021012003F06EFE03E0F7
:104650000121084603F069FE70BD70B59548046BF2
:10466000416B00221346204604F016FB04D20021C1
:10467000022003F05AFE03E00121022003F055FE60
:1046800070BD2DE9F04F89B00220FCF730FC002806
:104690007ED08948008864287BDA8748008888B9FA
:1046A0000021864A116051609160D16011615161B1
:1046B0009161D161116251629162D1621163516362
:1046C0009163D1637A49086804F0D3FA0546002261
:1046D0007B4B04F049F9074688467849D1E90053F5
:1046E0002A46414604F08CF8744A03C2704948686F
:1046F00004F0BFFA05460022714B04F035F9074675
:104700006E48D0E902532A46384604F079F86B4ADD
:10471000C2E902016649886804F0ABFA0546002246
:10472000674B04F021F907466448D0E904532A4650
:10473000384604F065F8614AC2E904015C49C8687A
:1047400004F097FA054600225D4B04F00DF9074688
:104750005A48D0E906532A46384604F051F8574AD9
:10476000C2E906015249086904F083FA05460022AD
:10477000534B04F0F9F8074688465049D1E90853ED
:104780002A46414604F03CF84C4AC2E9080101E0DF
:1047900096E142E04649486904F06BFA054600227A
:1047A000474B04F0E1F807464448D0E90A532A464B
:1047B000384604F025F8414AC2E90A013C498869B3
:1047C00004F057FA054600223D4B04F0CDF80746A9
:1047D00088463A49D1E90C532A46414604F010F87C
:1047E000364AC2E90C013249C86904F042FA05466A
:1047F0000022334B04F0B8F807463048D0E90E5396
:104800002A46384603F0FCFF2C4AC2E90E012A482A
:104810000088401C2849088052E100202649088071
:1048200028480078B0B903F071FD012812D123495E
:10483000D1E90401244A106151612048D0E90610F1
:104840009161D0611D48D0E90810116250620120C9
:104850001C4908701948D0E900532A464FF06630C9
:104860001A4904F055FA07460022194B04F07CF867
:1048700082460022174B04F077F80022164BCDE950
:10488000000104F079FBCDE904010C48D0E90053A4
:104890002A464FF066300D4920E000000008014034
:1048A000000C014000100140080002404C2401406F
:1048B000E8050020580600204C00002010060020CB
:1048C000000059404E000020A006002066660A4005
:1048D0000000144000FEAF400000F03F04F018FA62
:1048E00007460022824B04F03FF882460022814BAB
:1048F00004F03AF80022804BCDE9000104F008FAF8
:10490000CDE90201DDE9042304F02EF8CDE906012A
:1049100003F044FF04462146784804F0FDFE0546B6
:104920007649204604F0FAFD0646294604F0B4FC18
:104930008146484604F016FC054602F051FB074646
:1049400004F097F96E4A106051606E4800226E4B79
:10495000D0E90251284604F007F8694A9060D16016
:104960006A480078012812D1694805694369654899
:104970002A46D0E90471384604F00AFB8246654AAB
:10498000654B03F0F1FF5E4A1061516103E00021C5
:104990005B4A116151615B48604A614BD0E9065145
:1049A000284604F0F5FA07465E4A5F4B03F0DCFF49
:1049B000534A9061D1615349D1E908515B4A5C4B3C
:1049C000284604F069F904D800214D4A1162516269
:1049D0001FE04C484FF06632564BD0E9085128464C
:1049E00004F094FA05D800215348454A11625062F8
:1049F0000FE044484D4A4E4BD0E90851284604F098
:104A0000C7FA07464D4A4E4B03F0AEFF3C4A1062D0
:104A100051623C484FF066324A4BD0E90A51284671
:104A200004F03AF904D80021354A9162D1621FE0BE
:104A30003448454A454BD0E90A51284604F066FA05
:104A400005D800213C482E4A9162D06210E02D48E2
:104A50004FF066323B4BD0E90A51284604F098FAF1
:104A60000746364A364B03F07FFF254A9062D162F3
:104A70002449D1E90C510022354B284603F074FF3C
:104A80001F4A106351631F49D1E90E510022304B78
:104A9000284603F069FF1A4A9063D1631949D1E9A6
:104AA000105100222A4B284603F05EFF144A10647E
:104AB0005164FFF7D2FDFFF7BCFD0220FCF72BFA93
:104AC00009B0BDE8F08F02460D4800EBC20108684E
:104AD000496870472DE9F04109490C694B698E68B6
:104AE000C9682246304604F013F9BDE8F0810000A1
:104AF0000000144000FEAF4000CFEC400050C34720
:104B00005806002010060020004042404E000020C1
:104B1000A0060020C976BE9F1A0F30403D0AD7A3D9
:104B200070D188408638D6C56DC45F40EC51B81E40
:104B300085177940665DAF400000544085EB51B861
:104B40001E95464066667840295C8FC2F57FAE4070
:104B5000E0FFEF4008B501212120FCF7A8FE01216C
:104B60004806FCF7B1FE4FF40060ADF800004820A5
:104B70008DF8030003208DF802006946AC48FCF76D
:104B8000C7FA4FF48050ADF8000018208DF80300EC
:104B900003208DF802006946A548FCF7B9FA08BD64
:104BA00008B514208DF8000000208DF801008DF864
:104BB000020001208DF803006846FBF7D8FC08BD11
:104BC0000EB59C48FDF7EAFF6846FEF70BF900209A
:104BD0008DF8060001208DF807008DF808000020F0
:104BE0008DF809008DF80A008DF80B008DF8020091
:104BF0008DF803000B208DF8040002208DF80500CD
:104C00000920ADF8000069468A48FDF7E0FF0EBDB7
:104C10001FB500208DF80A008DF80B0001208DF8DB
:104C20000C000020ADF8000049F6A400ADF8020029
:104C30004FF6FF70ADF80400ADF806000020ADF8A7
:104C4000080001208DF80D006846FEF74AF80122A1
:104C500002217848FEF744FB1FBDF7207649087013
:104C6000F8204870F120C876F22173480177704728
:104C700010B500EBC00303EB43036F4C23445A54BD
:104C800010BD70B5044604EBC40101EB41016A4A52
:104C90008818192102F0CEF90546280A04EBC40150
:104CA00001EB4101644A1144487604EBC40101EB75
:104CB000410111448D7604EBC40101EB41018818D8
:104CC0001B2102F0DBF870BD2DE9F04786B080466D
:104CD0000D4691469A4600208DF80C008DF80D0087
:104CE000002427E04AEAC9000190A5EBC400082887
:104CF00001D9082001E0A5EBC400C0B28DF80E0078
:104D0000002607E006EBC40018F800100DF10F00B4
:104D10008155761C082EF5D301A94648FEF7D0F838
:104D20000746002600BF39464248FEF761F90128D0
:104D3000F9D1641C05F0070008B1012000E0002053
:104D400000EBD500A042CDD805F0070008B1012046
:104D500000E0002000EBD50006B0BDE8F08701467A
:104D6000002007E0354A125C0A540022334B1A54E3
:104D7000421CD0B20628F5DB70471FB50446002060
:104D80008DF80A008DF80B0001208DF80C00200230
:104D9000ADF80000BDF8001029A003F04DFB002085
:104DA000ADF802004FF47F40ADF804000020ADF8EC
:104DB0000600ADF8080001208DF80D006846FDF7EB
:104DC00090FF1FBD10B586B001AA00211948FEF75B
:104DD0006CF921480078F8B1019800F00700D8B9C3
:104DE000002416E00DF10F00005D14491B4A1278F3
:104DF00088541A480078401C184908700846007802
:104E0000062805D10020144908701449087002E0F2
:104E1000641C082CE6DB00BF019800F0070007289F
:104E200003D19DF80F00FFF7A8FF06B010BD0000EA
:104E30000008014000640040E80600205500002002
:104E40000A0D46696C746572496448696768203D5B
:104E50002025780A0D0000005C0000205B00002087
:104E600008B51020ADF8000000208DF803000220E6
:104E70008DF8020069466148FCF74AF908BD1FB584
:104E800001210520FCF713FD01214807FCF71CFD5B
:104E9000002000900190029003906946FBF765FEA8
:104EA00001210020FBF77EFE01210020FBF79EFE82
:104EB00000210846FBF7D7FE01210020FBF796FEF4
:104EC0001FBD10B50446B4F5805F01DB40F6FF74EA
:104ED00021460020FBF7C7FE10BD10B50446B4F50F
:104EE000805F01DB40F6FF7421460020FBF7C8FE1F
:104EF00010BD2DE9F0470446C82C03DBC82040490B
:104F0000087001E03E4804703D480078002805DD47
:104F10004FF400513948FCF7A8F904E04FF4005170
:104F20003648FCF7A4F93648007803F0A2FE07469D
:104F3000344A354B03F0ECFE054603F06DFE1FFAD4
:104F400080F94846FFF7BDFF2D4802781521002063
:104F5000FFF78EFEBDE8F08710B529480078C72816
:104F600001DBC82403E026480078401CC4B2204678
:104F7000FFF7BFFF10BD10B521480078012801DA06
:104F8000002403E01E480078401EC4B22046FFF70C
:104F9000B0FF10BD10B50020FFF7ABFF10BD70B51E
:104FA0000446C82C03DBC8201849087001E01748E4
:104FB000047016480078002805DD4FF4804114483D
:104FC000FCF753F904E04FF480411148FCF74FF926
:104FD0000E49087800EBD0714D10C5F16401C8B2DC
:104FE00000F083FC70BD09480078704710B50020C0
:104FF000FFF7D5FF10BD0248007870470008014058
:10500000680000209A9999999979344069000020A4
:10501000001001400EB501210920FCF748FC0F21CA
:105020000120FCF78BF94FF40040019000208DF82F
:1050300008000C208DF8090001208DF80A0001A855
:10504000FBF786FF0B210120FCF778F94FF4006095
:10505000019000208DF8080010208DF80900012033
:105060008DF80A0001A8FBF773FF06208DF80000F9
:1050700001208DF801008DF802008DF803006846CC
:10508000FBF775FA07208DF8000001208DF801006C
:105090008DF802008DF803006846FBF768FA0820D7
:1050A0008DF8000001208DF801008DF802008DF8C8
:1050B00003006846FBF75BFA09208DF80000012029
:1050C0008DF801008DF802008DF803006846FBF7AB
:1050D0004EFA0A208DF8000001208DF801008DF8AD
:1050E00002008DF803006846FBF741FA17208DF89F
:1050F000000000208DF8010001208DF802008DF8DD
:1051000003006846FBF733FA28208DF800000020E2
:105110008DF8010001208DF802008DF8030068462B
:10512000FBF725FA0EBD7047704770477047704710
:1051300070471CB50B210120FCF700F94FF400600B
:10514000009000208DF804000C208DF80500002050
:105150008DF806006846FBF7FBFE1CBD10B54FF44A
:1051600000411548FCF767F820B94FF40040FBF701
:1051700066FF07E0FFF7DDFF00F0F0FF4FF400608F
:10518000FBF75DFF4FF40840FBF759FF10BD1CB55E
:105190000B210120FCF7D2F84FF4006000900020B2
:1051A0008DF804000C208DF8050001208DF8060014
:1051B0006846FBF7CDFE1CBD000C014008B501217F
:1051C0003C20FCF774FB01210846FCF770FB012131
:1051D0003948FCF76EF803208DF8020010208DF896
:1051E00003004EF22000ADF8000069463348FBF79B
:1051F0008FFF4EF220013148FCF739F810208DF86E
:10520000030041F20470ADF8000069462C48FBF73A
:105210007FFF41F204712A48FCF729F814208DF829
:1052200003004FF4C040ADF8000069462448FBF786
:105230006FFF48208DF803004FF40840ADF80000E0
:1052400069461F48FBF764FF10208DF803000F200C
:10525000ADF8000069461B48FBF75AFF0F211948BB
:10526000FCF705F814208DF803003020ADF800009D
:1052700069461448FBF74CFF0120FCF7A2F8002018
:10528000FCF710FA0020FBF70EFC0020FCF799F861
:1052900002208DF8020010208DF803004FF46040CA
:1052A000ADF8000069460748FBF732FF4FF4604154
:1052B0000448FBF7DCFF08BD000430000008014093
:1052C000000C01400010014010B54FF48060FBF766
:1052D00049F910BD10B5FCF7CFF84FF48030FCF75A
:1052E000F2F8FCF72FF90446012C24D10020FCF73A
:1052F0009CF90020FCF7ABF9A002FCF79FF9022013
:10530000FEF744F91020FEF755F94FF4E0112004A0
:10531000FCF741F90120FCF74AF900BF3920FCF7FE
:10532000F5F80028FAD00220FCF771F900BFFCF76D
:1053300077F90828FBD110BD4FF0E021096921F071
:1053400004014FF0E0221161C108244A11601146A6
:1053500009684FF47A72B1FBF2F1204A11601146EC
:1053600009684FF47A72B1FBF2F11D4A117070476F
:1053700008B51A49096841434FF0E0225161002104
:1053800091610121116100BF4FF0E0210969009195
:10539000009901F480310029F6D000214FF0E0227D
:1053A0001161916108BD08B50D49097841434FF07D
:1053B000E0225161002191610121116100BF4FF094
:1053C000E02109690091009901F480310029F6D0AB
:1053D00000214FF0E0221161916108BD70000020B2
:1053E0006C00002000B589B00121C802FCF75FFA0B
:1053F00001210520FCF75BFA4FF48070ADF8200026
:1054000003208DF8220018208DF8230008A9FE48FB
:10541000FBF77EFEFD48FCF7AFFA40F2E730ADF84F
:10542000180040F60F60ADF814000020ADF81A0027
:10543000ADF8160005A9F548FCF772FB0020ADF8A1
:105440000400ADF80600ADF808009020ADF80A00A1
:105450000020ADF80C00ADF80E00ADF8100001A969
:10546000EA48FCF779FE09B000BD7FB5054600218A
:10547000E648FCF7B1FE642D03DA05EB8500440035
:1054800001E040F2E7346020ADF800000120ADF803
:1054900002000020ADF8040040F2E730001B80B2AB
:1054A000ADF806000220ADF808000020ADF80A00B3
:1054B000ADF80C00ADF80E006946D448FCF76DFB62
:1054C0000821D248FCF7B8FF0121D048FCF784FF3F
:1054D0000121CE48FCF7A4FE0121CC48FDF742F99A
:1054E00000220321C948FCF792FE0121C748FCF7BE
:1054F00073FE0121C548FCF77BFE7FBD70471FB5D9
:1055000001210846FCF7E0F94FF08040FCF734FA3F
:105510004EF65F20ADF8080048F69F40ADF8040055
:105520000020ADF80A00ADF8060001A94FF0804058
:10553000FCF7F6FA1C208DF8000002208DF801001F
:1055400000208DF8020001208DF803006846FBF76B
:105550000EF801218807FCF73FFF01218807FCF7BF
:105560005FFE01218807FDF7FDF800220121880771
:10557000FCF74DFE01218807FCF72EFE1FBD4FF6FC
:10558000FF7202EA4002A24B1A804FF6FF7202EA53
:105590004102A04B1A80704770B5FFF79BFA054691
:1055A00003F0FCF804469C49088803F06FFF0546A9
:1055B000214604F07FF805D8974A91885088FFF774
:1055C000DEFF31E09449088903F060FF054621467B
:1055D00004F070F805D8904A91895089FFF7CFFF01
:1055E00022E08D49088A03F051FF0546214604F068
:1055F00061F805D8884A918A508AFFF7C0FF13E006
:105600008549088B03F042FF0546214604F052F815
:1056100005D8814A918B508BFFF7B1FF04E07E4A99
:10562000918C508CFFF7ABFF70BD10B500220421A8
:105630000807FCF7ECFD002202214807FCF7E7FD14
:1056400010BD00B585B004217448FBF710FE0022A0
:1056500004210807FCF7DBFD002202214807FCF7C4
:10566000D6FD4FF08040FDF76EF8049000214FF01A
:105670008040FCF7E1FE0020ADF800000120ADF80D
:105680000200BDF810006249098808444EF6602106
:1056900090FBF1F201FB120080B2ADF80600002091
:1056A000ADF8080069464FF08040FCF776FA022119
:1056B0004807FDF757F800214FF08040FCF7C5FE82
:1056C0000020ADF800000120ADF80200BDF8100088
:1056D0004F49098808444F490988401A4EF660210D
:1056E00090FBF1F201FB120080B2ADF80600002041
:1056F000ADF8080069464FF08040FCF790FA0421AD
:105700000807FDF72FF8012204210807FCF77FFDA9
:10571000012202214807FCF77AFD05B000BD00B563
:1057200085B04FF480713E48FBF79FFD00203D4956
:1057300008704FF08040FDF706F8049000214FF00C
:105740008040FCF78FFE0020ADF800000120ADF88E
:105750000200BDF81000ADF8060069464FF0804029
:10576000FCF7AAFA0821C806FCF7FCFF0122082171
:10577000C806FCF74CFD05B000BD38B50020009010
:1057800002214807FCF7F1FFC0B3FFF705FF4FF018
:105790008040FCF7CBFF0090BDF800001C49098851
:1057A00008444EF6602190FBF1F201FB120084B236
:1057B00021464FF08040FCF7A7FFBDF800001449D8
:1057C0000988084413490988401A4EF6602190FB65
:1057D000F1F201FB120084B221464FF08040FCF749
:1057E00095FF04210D48FBF742FD01220421080723
:1057F000FCF70DFD02214807FCF7C8FF042108074C
:10580000FCF7B3FFE8B10FE000080140002C0140B5
:10581000E2000020E4000020E60700200010014024
:10582000000C0140F90000200421FE48FBF71DFD9B
:10583000002204210807FCF7EAFC04210807FCF712
:10584000A5FF0821C806FCF790FF10B3F6480078C2
:1058500003280ADB4FF48071F448FBF708FD0022AF
:105860000821C806FCF7D3FC0FE0EF480078401C85
:10587000ED4908704FF08040FCF75EFF0090BDF8E6
:1058800000104FF08040FCF743FF0821C806FCF7EA
:105890007DFF38BD1FB501210420FCF715F801215B
:1058A0000820FCF704F88020ADF80C0018208DF8D3
:1058B0000F0003208DF80E0003A9DC48FBF728FC3D
:1058C000DB48FCF759F840F2E730ADF8040040F24D
:1058D0006710ADF800000020ADF80600ADF802003A
:1058E0006946D348FCF71CF91FBD7FB5054600216A
:1058F000CF48FCF771FC642D03DA05EB850044000A
:1059000001E040F2E7346020ADF800000120ADF87E
:1059100002000220ADF8080040F2E730001B80B220
:10592000ADF806006946C248FCF779F90821C0487D
:10593000FCF78BFD0121BE48FCF74EFD0121BC4860
:10594000FCF76EFC0121BA48FCF70CFF0022032192
:10595000B748FCF75CFC0121B548FCF73DFC7FBD76
:10596000704700B589B001210820FBF7ADFFB148B1
:10597000FCF702F840F2E730ADF81C0048F69F4013
:10598000ADF818000020ADF81E00ADF81A0006A909
:10599000A848FCF7C5F80020ADF808000120ADF8D4
:1059A0000A00FA20ADF80E000020ADF8100002A9A0
:1059B000A048FCF7F2F800219E48FCF73DFD0020CE
:1059C000ADF808000120ADF80A0040F2E730ADF86C
:1059D0000E000020ADF8100002A99648FCF71FF950
:1059E00000219448FCF731FD32208DF8040002209C
:1059F0008DF8050001208DF806008DF8070001A83C
:105A0000FAF7B5FD01218B48FCF7E6FC0121894836
:105A1000FCF706FC03218748FCF7A4FE01220321C2
:105A20008448FCF7F4FB002204218248FCF7EFFBDA
:105A300001F0A5FC01217F48FCF7CEFB09B000BDB9
:105A40007D49087070477D48007870472DE9F04F18
:105A500093B00020119002217648FCF786FEC8B171
:105A60007448FCF763FE1190BDF8440000F5FA702D
:105A70004FF47A7190FBF1F201FB120080B2014603
:105A800003906C48FCF740FE01F07FFC022169485E
:105A9000FCF77CFE01216748FCF767FE00287DD0FB
:105AA0006548007800287AD101F065FE029003F085
:105AB000B5FC80B2642190FBF1F201FB1200C0B290
:105AC0000246022103900020FFF7D2F801F053FEB6
:105AD000029003F0A3FC80B2642190FBF1F0C0B20D
