:020000040800F2
:100000001023002029020008312A0008D9270008FF
:100010002D2A0008BD120008415E00080000000003
:10002000000000000000000000000000A73D0008E4
:100030002915000800000000552B0008294500087C
:10004000430200084302000843020008430200087C
:10005000430200084302000843020008430200086C
:10006000430200084302000843020008430200085C
:10007000430200084302000843020008430200084C
:10008000430200084302000843020008430200083C
:10009000430200084302000843020008430200082C
:1000A000430200084302000843020008430200081C
:1000B000D9470008654900084302000843020008C8
:1000C00043020008430200084302000843020008FC
:1000D000430200088D5A000843020008430200084A
:1000E00041180008430200084302000843020008C8
:1000F00043020008430200084302000843020008CC
:100100004302000843020008F94B000843020008BC
:1001100095590008555A0008430200084302000898
:10012000430200084302000843020008430200089B
:1001300000F002F800F068F80AA090E8000C824491
:100140008344AAF10107DA4501D100F05DF8AFF26E
:10015000090EBAE80F0013F0010F18BFFB1A43F0A5
:1001600001031847A07A0000C07A00000A444FF04B
:10017000000C10F8013B13F0070408BF10F8014B06
:100180001D1108BF10F8015B641E05D010F8016B4B
:10019000641E01F8016BF9D113F0080F1EBF10F8AF
:1001A000014BAD1C0C1B09D16D1E58BF01F801CBD2
:1001B000FAD505E014F8016B01F8016B6D1EF9D555
:1001C0009142D6D37047000000230024002500266A
:1001D000103A28BF78C1FBD8520728BF30C148BFAA
:1001E0000B607047642900F09580002070471FB5B0
:1001F00000F0DCFD04000020002106F0A1FA401C04
:1002000060601FBD10B510BD00F094FD1146FFF7F2
:10021000EEFF05F0FBFE00F0BBFD03B4FFF7F2FFBD
:1002200003BC05F075FE00000948804709480047F7
:10023000FEE7FEE7FEE7FEE7FEE7FEE7FEE7FEE796
:10024000FEE7FEE704480549054A064B70470000F3
:100250002D45000831010008101D0020102300204A
:10026000101F0020101F0020704700000FB4044929
:1002700010B503AA029800F03FFB10BC5DF814FB18
:10028000240800200FB41CB5074B06AA7B4469461E
:100290000090059800F017FB0020694600F026FB4F
:1002A0001CBC5DF814FB00005D0600002DE9F04168
:1002B0000E460446002020622046E168884730B39D
:1002C000252805D0D4E901219047206A401CF2E797
:1002D000E168204600278847050018D0A5F14100B5
:1002E000192802D820354FF40067324629462046A7
:1002F0002760FFF777FF40B1012804D0F61D26F0F4
:1003000007060836D8E7361DD6E72846DAE7206A1A
:10031000BDE8F0812DE9F0410646002410687529FA
:10032000314616A510D0AFF30080002802DA404213
:1003300013A507E031688A0701D512A502E0490735
:1003400004D511A5012401E0AFF3008000210A22A9
:1003500006F1240709E0B0FBF2FCB0FBF2F302FB6C
:100360001C00303078541846491C0028F3D123462D
:100370002A463046BDE8F04100F047BA00000000D0
:100380002D0000002B000000200000000FB400B57D
:100390008DB010A9099000910B904FF0FF300A909A
:1003A00000200C90064878440690064878446A4637
:1003B00007900F9909A800F0C5FA0DB05DF814FB7D
:1003C000BB050000D30500002DE9FF5F1D464FF07F
:1003D000FF3B91464FF000085F46D5E90146A96909
:1003E00001987F1C8847296A824688470028F6D1F1
:1003F000BAF1FF3F0CD0002E24F4C06419DD600672
:1004000014D5BAF12B0F09D0BAF12D0F0ED103E09C
:10041000584604B0BDE8F09F44F48064A96901988F
:100420007F1C8847761E8246002E02DDBAF1300F0F
:1004300003D0B9F1000F26D032E0A969761E0198E9
:100440007F1C44F400748847002E824605DDBAF113
:10045000780F06D0BAF1580F03D0B9F1000F10D0C1
:100460001EE0B9F1000F02D0B9F1100F18D1A9693F
:10047000761E01987F1C24F4007488478246102061
:1004800002E0082000E00A20814609E0A96908FB93
:100490000908761E01987F1C44F400748847824640
:1004A000002E05DD4946504600F038FA0028EDDA06
:1004B000E96901988847A00502D46FF00100A8E718
:1004C000E00725D1600613D5600502D5C8F100000C
:1004D00000E0404629680A1D2A600968220501D506
:1004E000087015E0220701D5088011E008600FE0D0
:1004F0002868011D29600068210502D580F8008068
:1005000006E0210702D5A0F8008001E0C0F80080D5
:1005100038467EE72DE9FF5F4FF000089946144604
:1005200046469169D2E901A7DDF838B001988847BD
:10053000054659EA0B0005D009E0A1690198761C2F
:1005400088470546216A284688470028F5D1681C57
:1005500003D05FEACA7005D015E04FF0FF3004B059
:10056000BDE8F09F2068011D2160D0F800800AE0FE
:100570005FEACA7001D108F8015BA169761C019895
:100580007F1E88470546002F1ADD681C18D0B9F178
:10059000000F0DD0E81705EBD060421120F01F00CE
:1005A00059F822102A1A012090400142E0D107E0B8
:1005B000BBF1000FDCD12846216A88470028D7D03C
:1005C000E16901988847BBF1000F07D1002E05DDD6
:1005D0005FEACA7002D1002188F80010A068B84212
:1005E00003DDBBF1000F03D017B16FF00100B6E7D8
:1005F0003046B4E7401ECAB210F8011F8A4202D04A
:100600000029F9D10020704730B505460B462A462F
:1006100013F8014B12F8010B08B1A042F8D01CB13D
:10062000002802D06D1CF1E7284630BD10B5431CF0
:1006300002E010F8011B71B18107FAD14FF00132CD
:1006400002C88C1A8C4314EAC211F9D0C01A0A06E7
:1006500003D0C01E10BDC01A10BD0A0401D0801EF8
:1006600010BD0902FCD0401E10BD421E12F8013F11
:10067000002BFBD111F8013B002B02F8013BF9D113
:100680007047032A40F2308010F0030C00F0158010
:1006900011F8013BBCF1020F624498BF11F801CB85
:1006A00000F8013B38BF11F8013BA2F1040298BFEA
:1006B00000F801CB38BF00F8013B11F0030300F054
:1006C0002580083AC0F0088051F8043B083A51F8F8
:1006D00004CBA0E80810F5E7121D5CBF51F8043BFD
:1006E00040F8043BAFF30080D20724BF11F8013B70
:1006F00011F801CB48BF11F8012B24BF00F8013BD2
:1007000000F801CB48BF00F8012B704710B5203A24
:10071000C0F00B80B1E81850203AA0E81850B1E8BA
:100720001850A0E81850BFF4F5AF5FEA027C24BF70
:10073000B1E81850A0E8185044BF18C918C0BDE867
:1007400010405FEA827C24BF51F8043B40F8043B30
:1007500008BF7047D20728BF31F8023B48BF11F8E5
:10076000012B28BF20F8023B48BF00F8012B70473F
:100770004FF000020429C0F0128010F0030C00F0CA
:100780001B80CCF1040CBCF1020F18BF00F8012B48
:10079000A8BF20F8022BA1EB0C0100F00DB85FEA16
:1007A000C17C24BF00F8012B00F8012B48BF00F8E2
:1007B000012B70474FF0000200B513469446964651
:1007C000203922BFA0E80C50A0E80C50B1F1200164
:1007D000BFF4F7AF090728BFA0E80C5048BF0CC012
:1007E0005DF804EB890028BF40F8042B08BF704770
:1007F00048BF20F8022B11F0804F18BF00F8012BE2
:10080000704770477047704770472DE9F0470D46B5
:1008100099469246044600F124080168880604D5EA
:10082000E06921F01001216000E00120A84201DD13
:10083000471B00E00027A1697A1902EB0900081A9A
:10084000A0612078C00602D42046AFF300800026C5
:1008500008E0D4E901211AF806009047206A401CFC
:10086000761C20624E45F4DB2078C0060AD520466F
:10087000AFF3008006E0D4E9012130209047206AE0
:10088000401C2062381EA7F10107F4DC07E0D4E920
:10089000012118F805009047206A401C2062281E9C
:1008A000A5F10105F3DC2046AFF3008020780006B7
:1008B00002D50220BDE8F0870120FBE701694A1C50
:1008C00002610878704700B58FB0CDE90131002191
:1008D000059105497944CDE9031011466846FFF7B3
:1008E000E5FC0FB000BD0000E5FFFFFF0A6802F85D
:1008F000010B0A6070470000074B70B50D467B4442
:10090000FFF7E1FF0446284600F010FA10B14FF05F
:10091000FF3070BD204670BDEF5600003A2800D26F
:10092000303820F02002412A01D3A2F1370088425A
:1009300001D34FF0FF307047026811441378016013
:1009400018467047D160054979445161044979449A
:10095000116200211161114600F02EB8EDFFFFFF7A
:1009600053000000426842B1016811F8013B23B115
:10097000521EC0E90012184670470121C160881E4E
:10098000704742685AB1C368016843B983688B42B3
:1009900005D0491E521CC0E90012002070474FF0DC
:1009A000FF30704710B5044600F0EAF90068005DBA
:1009B00000F0010010BD00002DE9F34F4FF0000AD8
:1009C0000C4656468DB001200C9001F10C000B90A6
:1009D00062690B9801219047051E2DD0252D2CD042
:1009E000216A8847C0B162690B9801219047216A4A
:1009F00088470028F7D16269411E0B98904700E0B4
:100A0000761CA1690D988847216A88470028F7D18C
:100A1000E1690D988847DBE7A1690D988847A842EE
:100A2000074601D1761CD3E7E1690D9888477F1C02
:100A300002D1BAF1000F6FD06BE162690B98002709
:100A40003D46394690472A2804D162690B98012116
:100A500090470125DFF8D08262690B980121904709
:100A6000A0F130010A290AD24745E5DC07EB8701EE
:100A700000EB4107303FDFD445F01005ECE7E90615
:100A800001D46FF000476C280AD04C2814D0682895
:100A900015D06A280DD074281CD07A281AD01DE0F1
:100AA00062690B98012190476C2802D045F004053B
:100AB00014E045F002050DE045F020050AE062690A
:100AC0000B9801219047682802D045F0080505E001
:100AD00045F4006562690B9801219047C4E901570C
:100AE00065283DD019DC58287AD00CDC452837D051
:100AF00004DC252826D041289ED131E046282FD07D
:100B0000472899D12CE05B2877D0612828D063282A
:100B10007CD0642823D15AE0F6E06F2848D008DC66
:100B200066281DD067281BD0692821D06E2816D1D1
:100B300027E0702845D0732868D0752847D07828DA
:100B40000DD14DE0A1690D988847252805463FF451
:100B500069AFE1690D9888476D1C3FF46AAFD8E032
:100B60000D9923466A466FF00100AFF30080C5E09F
:100B700045F0400023464FF000026060A80736D4DD
:100B80003EE0E8077FF447AF2068011D2160006860
:100B9000290501D506701BE7290701D5068017E74F
:100BA000A90703D5F117C0E9006111E706600FE757
:100BB00045F0400023464FF008026060A80716D4B5
:100BC0001EE040F60E0125EA0100606016E045F0E7
:100BD000400023464FF00A026060A80707D40FE0E8
:100BE00045F040006060A80708D5234610220D9903
:100BF0006FF00100AFF3008080E007E01022234691
:100C00000D996FF00100FFF7DFFB77E04FF000096F
:100C100063284F46C8464B46CB4602D05B2806D0D9
:100C200038E0E80601D40120A060012732E06269C3
:100C3000D4F80CB00B98012190475E2807D14FF0F3
:100C4000010949466269D4F80CB00B9890472169B4
:100C500039B900210A4603AB43F82120491C082971
:100C6000FADBD8B3216949B308F1010862690B982E
:100C7000012190475D28F4D1B9F1000F09D000207F
:100C800003A951F82020D24341F82020401C082815
:100C9000F7DB03AB2069002820794FEA40701ED0B3
:100CA0005B462246CDF80080CDE901970D990028DA
:100CB0006FF0010020DAAFF300801FE0C11703AA34
:100CC00000EBD1614B1121F01F0102EB8302411AAD
:100CD00013680120884003431360C7E719E00D99AA
:100CE000224600286FF00100009702DAAFF300807F
:100CF00004E0FFF70FFC01E0AFF3008000280ADA00
:100D0000401C06D10C9820B14FF0FF300FB0BDE869
:100D1000F08F5046FAE7E90701D10AF1010A0644CB
:100D200000200C9054E60000CCCCCC0C007B00F0F2
:100D300080007047754600F035F8AE4605006946FC
:100D4000534620F00700854618B020B5FFF77AFA21
:100D5000BDE820404FF000064FF000074FF00008BC
:100D60004FF0000B21F00701AC46ACE8C009ACE83D
:100D7000C009ACE8C009ACE8C0098D467047000066
:100D800010B500F013F8001D10BD00BFB5590000EC
:100D900010B50446AFF300802046BDE81040FFF7D1
:100DA0003CBA000000487047AC1C00200048704767
:100DB000CC1C00204FF0013C50F8042B51F8043BB0
:100DC0009A4221D1A2EB0C03934313EACC1317D11F
:100DD00050F8042B51F8043B9A4215D1A2EB0C03B6
:100DE000934313EACC130BD150F8042B51F8043B76
:100DF0009A4209D1A2EB0C03934313EACC13DBD044
:100E00004FF00000704700BFD01A01BAB1FA81F16B
:100E100001F0180122FA01F0CB40C1F12001DBB250
:100E2000C0B2C01A2CFA01F3D11A914311EAC311CE
:100E3000E6D1704721B1826842F00102826003E08E
:100E4000826822F0010282607047000010B50446FB
:100E50001248844208D10121401501F04FFF0021C2
:100E6000601501F04BFF17E00D48844208D10121C5
:100E7000001501F043FF0021201501F03FFF0BE0BA
:100E80000848844208D10121C80301F037FF00213E
:100E90004FF4004001F032FF10BD0000002401407B
:100EA00000280140003C0140014600208A6802F011
:100EB00004020AB1012000E0002070470146C86C1E
:100EC00080B270470246002013680B400BB101202E
:100ED00000E000207047014600208A6802F0080206
:100EE0000AB1012000E000207047000030B5024642
:100EF0000020002350680F4C20400D790C6844EA14
:100F000005242043506090680B4C2040D1E90254E6
:100F10002C434D7944EA450420439060D06A20F484
:100F200070000C7C641EE4B2234340EA0350D0629C
:100F300030BD0000FFFEF0FFFDF7F1FFF0B5044605
:100F40000D4600200021092D11DDE068A5F10A06FB
:100F500006EB4607072606FA07F18843A5F10A06BD
:100F600006EB460603FA06F10843E0600CE0206950
:100F700005EB4507072606FA07F1884305EB45060A
:100F800003FA06F108432061072A0FDA606B561E48
:100F900006EB86071F2606FA07F18843561E06EB66
:100FA000860605FA06F10843606322E00D2A0FDA8F
:100FB000206BD61F06EB86071F2606FA07F188432B
:100FC000D61F06EB860605FA06F10843206310E0FB
:100FD000E06AA2F10D0606EB86071F2606FA07F166
:100FE0008843A2F10D0606EB860605FA06F10843D2
:100FF000E062F0BD816841F008018160704721B175
:10100000826842F4A002826003E0826822F4A002B7
:1010100082607047816841F0040181607047000080
:1010200000B587B001214FF4077001F057FE4FF46F
:10103000004001F027FECF20ADF8040000208DF81D
:10104000070001A9214800F05FFD0320ADF804006E
:1010500000208DF8070001A91D4800F055FD012072
:10106000ADF8040000208DF8070001A9194800F030
:101070004BFD1948FFF7EAFE002002908DF80C00A6
:101080008DF80D004FF460200490002005900120A1
:101090008DF8180002A91048FFF728FF01210E481B
:1010A000FFF7C8FE0C48FFF7A5FF00BF0A48FFF78F
:1010B00012FF0028FAD10848FFF7ACFF00BF06482E
:1010C000FFF7F2FE0028FAD107B000BD000801408A
:1010D000000C0140001001400024014000B591B017
:1010E000402101A8FFF766FBF12005F09DFAF720EB
:1010F00005F0F2F92022074901A8FFF7C2FA2022E1
:10110000054909A8FFF7BDFA402101A804F076FEC1
:1011100011B000BDBA010020140D002010B50B481D
:101120000078012806D100200849087020210848CD
:1011300004F06EFE07480078012806D1002005491A
:1011400008702021044804F063FE10BDF007002061
:10115000BA010020EF070020140D002001490860AB
:101160007047000000860D4270B50446B4F5FA6F72
:1011700001DB4FF4FA64002C02DD00F089F801E095
:1011800000F080F84FF47A7060434FF4FA6190FBFE
:10119000F1F085B22946024804F03DFB70BD000025
:1011A0000008004030B589B005460C4601210420F6
:1011B00001F074FD0121192001F090FD4020ADF8EF
:1011C000200018208DF8230003208DF8220008A9A4
:1011D000294800F099FC4FF40070ADF82000102071
:1011E0008DF8230003208DF8220008A9234800F081
:1011F0008BFC4FF40071214800F063FD204804F09F
:101200004BF9ADF81850ADF814400020ADF81A00B5
:10121000ADF8160005A91A4804F02EFB0021184865
:1012200004F02EF97020ADF804000120ADF806009E
:101230000020ADF80C00ADF80A0001A9104804F038
:1012400095FA08210E4804F0DDFA01210C4804F05B
:1012500005F901210A4804F013FA0121084804F0B5
:1012600009F900220321064804F076FA0121044816
:1012700004F006F909B030BD000C01400010014037
:10128000000800400020014908607047A401224284
:101290000120014908607047A401224205490870F5
:1012A000097819B90321044A117002E00221024AA7
:1012B00011707047320200202B02002000BFFEE7B1
:1012C00030B5ADF5017D04460D464FF40072074977
:1012D00001A8FFF71BFA01AB4FF6FF722946204623
:1012E00000F0F3FC0DF5017D30BD000054780008DE
:1012F0002DE9F05F0F4800680A21B0FBF1F42046A9
:1013000006F0E0F88246504605F02CFF80460A4A77
:101310000A4B05F0FDFC0646094A0A4B05F058FA4F
:10132000044605F023FA8346584606F093F8C0B207
:10133000BDE8F09F14020020F6285C8FC2F5E03F64
:10134000C3F5285C8F023A4010B535480078012873
:1013500065D134480078002861D133490860012004
:101360003249C1F8A00142F6E06002F0D7FE3048F1
:101370000068401C2E4908600846006842F210715F
:10138000B0FBF1F201FB12006421B0FBF1F201FBB2
:101390001200284908702648006842F21071B0FB1C
:1013A000F1F201FB12006421B0FBF1F02149487019
:1013B0001F48006842F21071B0FBF1F01D498870BF
:1013C00004221D4802F068FC1C49C878FFF766FF3C
:1013D000012015490C390860194908600020184996
:1013E0000831086001201749C1F8B801134988780D
:1013F00001F0E8FB0120144908700020134908801F
:1014000013490880134908700120134908700549E1
:10141000087002201149087000201149087010BDA1
:101420002400002023000020A0012242008021424D
:101430001C00002009000020F00001085C000020D2
:101440009C81214200002242260000203000002022
:10145000320000202E0000203C0000202902002045
:101460006200002010B504460548844207D10548B3
:1014700001880548FFF77CF900200249088010BD6B
:10148000003801402A0800207C0E002039B1084AAB
:101490001268012383401A43054B1A6006E0044A90
:1014A0001268012383409A43014B1A607047000081
:1014B0000074004030B5002200230A4C226840F638
:1014C000FE748440A243D1E900452C438D682C432F
:1014D000CD6844EA050303FA00F42243014C22607C
:1014E00030BD00000074004008B500220092054A9B
:1014F000009200F10802009B1A440092009A1160C9
:1015000008BD00000074004008B500220092054AA2
:10151000009200F11402009B1A440092009A11609C
:1015200008BD0000007400407047000008B50121AC
:101530003D2001F0D3FB5D48406820F07F4040F043
:1015400080605A49486010208DF8030003208DF810
:1015500002004FF4A640ADF800006946544800F080
:10156000D3FA4FF4A641524800F0ABFB012001F042
:10157000B3FA002001F098FC002001F0ADFA002041
:10158000FFF7ECFD4FF47070ADF8000001208DF80E
:1015900002006946474800F0B7FA4FF470714548B9
:1015A00000F08FFB4FF40060ADF8000003208DF8D1
:1015B000020069463E4800F0A7FA4FF400613C483B
:1015C00000F07FFB4FF48060ADF8000048208DF8FC
:1015D000030003208DF802006946354800F094FAB4
:1015E0004FF40050ADF8000010208DF803000320E8
:1015F0008DF8020069462F4800F086FA1020ADF8F9
:1016000000008DF8030069462A4800F07DFA0C209E
:10161000ADF8000048208DF803006946254800F029
:1016200073FA4FF48070ADF8000048208DF8030085
:101630006946214800F068FA4FF40050ADF8000008
:1016400048208DF803006946194800F05DFA102023
:101650008DF8030001208DF802004CF22200ADF855
:1016600000006946134800F04FFA4CF2220111487D
:1016700000F027FB10208DF8030001208DF80200F8
:101680008020ADF800006946094800F03DFA80214D
:10169000074800F016FB0420ADF8000048208DF844
:1016A00003006946024800F02FFA08BD000001401F
:1016B000000C014000100140000801400EB5002060
:1016C000474908604749C1F8BC01454910310860E5
:1016D000454908604449083108604149343108608F
:1016E0004149091D086001F025FC4FF400613F48A5
:1016F00000F0E9FAC82004F02FFC4FF400613B48E9
:1017000000F0DFFA4FF4E13004F096FE4FF4E130E0
:1017100004F0B4FA4FF4165004F006FBFFF780FC17
:1017200048F6A0414FF47A7003F0AEF840F60F612E
:1017300040F2E730FFF736FD01F050F80020FFF7E8
:10174000ADFD0020FFF710FD41F61F41632003F0BF
:1017500055FE41F61F4142F20F7003F01DFA01F0F1
:10176000C1F901F039FA00F07FFF062269462048EE
:1017700002F07EFA0A216846FFF7A2FDC0B29DF88A
:101780000A1088422BD10A216846FFF799FD9DF87F
:101790000B10B1EB202F22D19DF80000154988765F
:1017A0009DF80100C8769DF8020008779DF80300B7
:1017B00048779DF8040088779DF80500C8779DF864
:1017C00006009DF8071040EA01200B4908809DF8AB
:1017D00008009DF8091040EA0120084908800EBD64
:1017E00084012242000022429C812142000C0140DF
:1017F00000100108BA01002004080020020800209F
:1018000000B5F72004F068FE0948007828B10020F0
:10181000074908700120074908700748007828B177
:1018200000200549087001200449087000BD00002F
:10183000930200204C020020EE070020EF0700205A
:1018400010B54FF4004000F01FF8012810D1C0037C
:1018500000F014F80748008838B10648008841F2C3
:10186000707191FBF0F00449087000200149088074
:1018700010BD0000EA070020E807002001490860C9
:101880007047000014040140014600200022074B6D
:101890001B6803EA0102054B14331B680B4013B1AC
:1018A0000AB1012000E00020704700000004014060
:1018B000002123498279002A3AD00A461268036837
:1018C0009A430B461A600A1D126803689A430B1D5F
:1018D0001A60027911440A6803681A430A60184AB8
:1018E0000832126803689A43154B08331A601A1DB0
:1018F000126803689A43124B0C331A604279102A1B
:101900000ED11A1F126803681A430D4B08331A6070
:101910001A1D126803681A43094B0C331A600DE054
:101920000749427911440A6803681A430A6005E0CE
:10193000027911440A6803689A430A6070470000FC
:101940000004014070B5002400250E48408D0D496B
:10195000097D884214DBFFF7CBFC044621460AA030
:10196000FEF784FC204600F05FFF054629460BA0E9
:10197000FEF77CFC2846FFF7F7FB0020014948856D
:1019800070BD0000E80C0020D7EEBCD1CEC2B6C8B6
:101990003A20202025640D0A00000000D7D4B6AFFD
:1019A000B5F7D5FBCBD9B6C83A20202025640D0A5F
:1019B0000000000030B5044604254FF4302000F04C
:1019C0006FF80546042D17D10C48006940F002005D
:1019D0000A49086108464461006940F04000086116
:1019E0004FF4302000F05CF805460448006941F6E9
:1019F000FD71084001490861284630BD00200240C1
:101A000004200B49C96801F0010109B101200EE071
:101A10000749C96801F0040109B1022007E004493F
:101A2000C96801F0100109B1032000E004207047EB
:101A3000002002400348006940F08000014908612D
:101A4000704700000020024070B504460D46042691
:101A5000F00200F025F80646042E11D1094800696D
:101A600040F00100074908612580F00200F018F8F5
:101A700006460448006941F6FE71084001490861C4
:101A8000304670BD002002400248034948600348C8
:101A9000486070472301674500200240AB89EFCDC5
:101AA00000B502460423FFF7ABFF034603E0FFF750
:101AB000A7FF0346521E012B01D1002AF7D102B91C
:101AC0000523184600BD000030B500228B071C0F0F
:101AD0000F2303FA04F20B4B8C1053F8243093437A
:101AE000084C8D1044F8253023468C1053F82430D0
:101AF0008C07240F00FA04F42343024C8D1044F8A1
:101B0000253030BD080001402DE9F0410246002596
:101B10000026002000230024002791F803C00CF0C9
:101B20000F0591F803C00CF0100CBCF1000F03D0AE
:101B300091F802C04CEA050591F800C0BCF1000F15
:101B400031D0146800202BE04FF0010C0CFA00F3A8
:101B5000B1F800C00CEA03069E4220D183004FF08A
:101B60000F0C0CFA03F7BC4305FA03FC4CEA04041F
:101B700091F803C0BCF1280F06D14FF0010C0CFA0C
:101B800000FCC2F814C00AE091F803C0BCF1480F91
:101B900005D14FF0010C0CFA00FCC2F810C0401C3B
:101BA0000828D1D31460B1F800C0BCF1FF0F34DDB8
:101BB000546800202EE000F1080C4FF0010808FAEC
:101BC0000CF3B1F800C00CEA03069E4221D1830059
:101BD0004FF00F0C0CFA03F7BC4305FA03FC4CEA78
:101BE000040491F803C0BCF1280F05D100F1080CE2
:101BF00008FA0CF8C2F8148091F803C0BCF1480F41
:101C000007D100F1080C4FF0010808FA0CF8C2F8EF
:101C10001080401C0828CED35460BDE8F08100003D
:101C2000F0B50A46002300240021002500F00046FC
:101C3000B6F1004F02D11D4EF16901E01B4E7168F3
:101C4000C0F3034583B200F44016B6F5401F08D137
:101C500021F07061154E766826F07066134F7E6035
:101C600012E000F48016B6F5801F06D1032606FAAE
:101C700005F4A14341F0706106E0460D360103FA18
:101C800006F6B14341F0706122B1460D360103FA08
:101C900006F6314300F00046B6F1004F02D1034E84
:101CA000F16101E0014E7160F0BD000000000140F3
:101CB0000246002093680B400BB1012000E0002099
:101CC00070474161704701617047F0B504461046A6
:101CD00007E0C5B214F8016B6E4033F8166086EA6F
:101CE00020200E1EA1F10101F3DCF0BD2DE9F0472B
:101CF0001E48007800F0800088B31C48007800F08F
:101D00003F0A0AEB4A00C0EBCA104FF6FF7101EA26
:101D1000C00A1748008850441FFA80FA504604F061
:101D2000A7FF064632460B460020124904F004FE87
:101D300004460022104B04F0EBFF804604F054FFF1
:101D40000E4908800020094908700C4800780C49A9
:101D500008700A480088000A0A49087003E0FFE793
:101D6000002006490880BDE8F087000058020020E6
:101D70005A020020004CED40000024405C0200208C
:101D80005E0200205F0200202DE9F04106460F466A
:101D90003046394604F028FF05461248D0F82C0595
:101DA000A84204D90F4890F92805BDE8F0810D48F4
:101DB0004068A84202D26FF02700F6E7A42407E0AB
:101DC000084800EBC4004068A84200D302E0641E4B
:101DD000002CF5DC00BF034800EBC40090F90000C4
:101DE000E3E70000B802002010B5044600230122FA
:101DF00021460948FFF7A2F801210748FFF7FFF83D
:101E000000BF02210448FFF75DF80028F9D002481E
:101E1000FFF754F810BD0000002401402DE9F04701
:101E200086B004468A464FF0000900BF5CB1012C21
:101E300009D0022C07D0092C05D0082C03D00A2C7D
:101E400001D0072C07D12046FFF7CEFF8146484638
:101E500006B0BDE8F0872046FFF7C6FF814648463A
:101E600004F006FF074600220D4B04F065FD4FF01D
:101E700066320C4BCDE9000104F04AFF00220A4B08
:101E8000CDE9020104F044FF0546084A084B04F07E
:101E900053FDCDE9040104F0A7FE80B2D8E70000AD
:101EA0000000B04066660A4000009040E17A14AE3F
:101EB00047E109402DE9FC5F05210A20FFF7AEFF4D
:101EC000009004F0D5FE8046284A294B05F060F8C2
:101ED00006464FF06632274B04F02EFD044604F010
:101EE00045FC2549019005F035FB834605F0B2FA23
:101EF000224908800846008821498882002021491B
:101F00000860824612E01E490AF1010031F8100013
:101F100021F81A00084630F81A001A4909680844DE
:101F2000184908600AF1010000F0FF0ABAF10A0F2F
:101F3000E9DB144800680A21B0FBF1F00F49088082
:101F40000846008864214843572190FBF1F8404639
:101F500004F077FE06460C4A0C4B04F0D9FE04460A
:101F600004F042FE05490880BDE8FC9F9A999999C2
:101F700099D1884066D1A84000803B45FC010020F3
:101F800096080020EC0100207B14AE47E17AEC3F7C
:101F90002DE9FF5F05210820FFF740FF834604F08D
:101FA00067FE0022574BCDE9000104F0C5FC4FF05D
:101FB0006632554BCDE9020104F0AAFE0646002226
:101FC000524B04F0A5FE04460022514B04F0B4FC31
:101FD000804604F009FE4F490860084600884E49D3
:101FE000488100204D490860824612E04A490AF1C2
:101FF000010031F8100021F81A00084630F81A00E4
:10200000464909680844454908600AF1010000F0A2
:10201000FF0ABAF1050FE9DB404800680521B0FB73
:10202000F1F03C4908600846006804F021FE0446CF
:102030003B4A3C4B04F06AFF0ED23648006804F07D
:1020400017FE0446364A374B04F0A2FF064604F05A
:10205000CBFD3049086002E000202E4908602D4881
:10206000006804F005FE304A304BCDE9020104F06F
:1020700063FC064600222E4B04F04AFE80460022F6
:102080002C4B04F045FE044604F0AEFD21490860E7
:1020900029480078012832D1084600684B2803D32C
:1020A0000120264908702AE01A480068462803D310
:1020B00001202349087022E0164800682D280FD31C
:1020C00000201F4908701F49087001201E49087030
:1020D0001E49087000201E4908701E4908800EE045
:1020E0000C4800680A2809D30020154908701549D2
:1020F0000870174908701749088000E000BFBDE864
:10210000FF9F000000FEAF4066660A40000090405E
:1021100000001440080200208A080020E801002086
:102120009A99999999994940CDCCCCCCCCCC7C400A
:10213000000054400000F43F2300002079000020FC
:10214000B0000020AF0000207800002076000020C2
:1021500080000020820000202DE9F04705210320A7
:10216000FFF75CFE20490860084600881F49488147
:1021700000201F49086000240FE01C49601C31F852
:10218000100021F81400084630F8140018490968B6
:10219000084417490860601CC4B2052CEDDB1448E4
:1021A00000680521B0FBF1F00F490860084600689F
:1021B000B0F5007F12D30968A1F5007005F082F92F
:1021C000814604F0CFFF07460A4A0B4B04F0A0FDFE
:1021D000054604F009FD0449086002E000200249B8
:1021E0000860BDE8F087000014020020720800209B
:1021F000E001002037894160E5D003402DE9FC5F14
:1022000005210120FFF70AFE009004F031FD804611
:10221000204A214B04F0BCFE06464FF066321F4BAD
:1022200004F08AFB044604F0A1FA1D49019005F070
:1022300091F9834605F00EF91A490880084600888E
:1022400019494881002019490860824612E0164960
:102250000AF1010031F8100021F81A00084630F8A0
:102260001A00124909680844104908600AF101007F
:1022700000F0FF0ABAF1050FE9DB0C480068052100
:10228000B0FBF1F007490880F12004F0CDF9BDE87A
:10229000FC9F00009A99999999D1884066D1A840ED
:1022A00000007A4302020020B8080020F401002058
:1022B0002DE9F04F8BB005210220FFF7AFFD494912
:1022C000088008460088484948810020474908603E
:1022D00000240FE04449601C31F8100021F814007C
:1022E000084630F814004149096808443F4908602D
:1022F000601CC4B2052CEDDB3C4800680521B0FB36
:10230000F1F03849088008460088B0F5746F62DA49
:102310000846008804F0ACFC07464FF06632344BA8
:1023200004F0F6FC0022334BCDE9000104F004FB7D
:1023300082460022304B04F0FFFA00222F4BCDE9F9
:10234000020104F019FECDE906012648008804F0D8
:102350008FFC07464FF06632254B04F0D9FC8246CD
:102360000022244B04F0E8FA0022234BCDE90001BF
:1023700004F0E2FA0022224BCDE9020104F0C8FC8D
:10238000CDE90401DDE9062304F0D6FACDE9080120
:1023900004F0ECF9064631461A4805F0D9F907462B
:1023A0001849304605F0D6F88046394604F074FFE7
:1023B0008146484604F0D6FE0746FFF7E5FC124981
:1023C000086008460568002D02DA0020086005E074
:1023D0000D48056002E000200B4908600BB0BDE825
:1023E000F08F0000BA0000207E080020E4010020E9
:1023F00066660A400000144000FEAF400000F03F57
:1024000000CFEC400050C347180200202DE9FF5FC9
:1024100005210920FFF702FD2F4988824FF00009AE
:102420000AE02D4909F1010031F8100021F81900E6
:1024300009F1010000F0FF09B9F10A0FF1DB4FF0DB
:10244000000A21E0002417E0234830F81410024667
:10245000601C32F8100081420CDD1146601C11F83E
:1024600010B0084630F81410601C22F81010104606
:1024700020F814B0601CC4B2CAF10A00A042E3DC28
:102480000AF1010000F0FF0ABAF10A0FDADB124983
:10249000888904F0EDFB07460022104B04F04CFA4B
:1024A00005464FF066320E4B04F032FC0D4A0E4BDF
:1024B000CDE9000104F02CFCCDE9020104F094FB0D
:1024C0000A4908600846006800020860084600687B
:1024D000000A0860BDE8FF9F5C0800200000B040D3
:1024E00066660A4061545227E080A3401002002033
:1024F0002DE9FE4F05210720FFF790FCA0F55C7B3E
:10250000584604F09EFB204A204BCDE9000104F020
:1025100013FA064600221E4B04F0FAFB04461D4A3D
:102520001D4B04F0F5FB804604F020F9029004F006
:1025300091FF1A490860084600881949488100201F
:1025400018490860824612E015490AF1010031F885
:10255000100021F81A00084630F81A0011490968DD
:102560000844104908600AF1010000F0FF0ABAF1BE
:10257000050FE9DB0B4800680521B0FBF1F00749C6
:102580000860BDE8FE8F000048E17A14AE6698400E
:1025900000408F40029A081B9E5EF03F0C02002014
:1025A000C4080020F80100202DE9FC5F052100206F
:1025B000FFF734FC009004F05BFB8046234A244B79
:1025C00004F0E6FC06464FF06632224B04F0B4F904
:1025D000044604F0CBF82049019004F0BBFF834689
:1025E00004F038FF1D490880084600881C494881CE
:1025F00000201C490860824612E019490AF10100D6
:1026000031F8100021F81A00084630F81A00154970
:1026100009680844134908600AF1010000F0FF0A44
:10262000BAF1050FE9DB0F4800680521B0FBF1F0B6
:102630000A4908800846008864214843572190FBD6
:10264000F1F006490880BDE8FC9F00009A9999992D
:1026500099D1884066D1A84000007A44FE0100204C
:10266000AC080020F001002000B585B00121042055
:1026700000F034FB0121480700F010FB2020ADF8EA
:10268000100000208DF8130003208DF8120004A91B
:102690000D48FFF739FA20210B48FFF714FB002003
:1026A0000090019002900220039069461020FEF7EE
:1026B00001FF01211020FEF7E9FE00210846FEF788
:1026C00023FF05B000BD00000008014070B50546BD
:1026D000284604F0F7FE04460021204605F006F8DF
:1026E0001BD20120134908601349204604F0FEFE66
:1026F00009D82146114804F02DFF06460E4904F082
:10270000CBFD044600E00D4C204604F0A3FE86B24B
:1027100031460020FEF7F8FE0BE000200549086076
:102720000024204604F096FE86B231460020FEF7D3
:10273000EBFE70BD9C8121420000484300F07F45C4
:102740002DE9F04387B004460D46002740F2C7103C
:10275000069018221D496846FDF7D8FFA046A946F5
:102760004FEA1820ADF80C0008F0FF00ADF80E009D
:102770004FEA1920ADF8100009F0FF00ADF8120083
:10278000002605E03DF81600384487B2701C86B27A
:102790000A2EF7DBF8B2ADF814000D48007830B916
:1027A0000B21684600F09AFB01200949087009488E
:1027B0000078012806D1012106A800F08FFB002037
:1027C0000449087007B0BDE8F08300003C780008B9
:1027D000F2070020F407002000BFFEE700200E49AA
:1027E000087048708870C870087140F26C70C884B6
:1027F0004FF42F7008854FF4FA7088840020C86168
:10280000886108624885054888600548C8600548B1
:1028100008610A2008757047E80C00200000584144
:102820009A9981410000484170B5044600253C4812
:1028300004703C4800783A49487008464078097866
:10284000401A40B23649887091F90210344A92F920
:102850000420881A04F01EFE06463148816830467E
:1028600004F078FE2E49C86191F9020004F012FECE
:1028700006462B48C168304604F06CFE2849886142
:10288000084690F90200002816DD91F90210244A4A
:1028900092F90420022303FB1211214A92F903202A
:1028A000881804F0F7FD06461D480169304604F01B
:1028B00051FE1B49086202E0002019490862184ACB
:1028C0009169D06904F07AFC06461548016A3046E1
:1028D00004F074FC0546284604F0A0FD1049898CDC
:1028E00008440F4988840846808C098D884203DAA1
:1028F0000B48008D0A4988840948808C0849C98C96
:10290000884203DD0648C08C054988840448C078A5
:102910000349087108468078C8700846808C70BDED
:10292000E80C00201802002038B500240020009098
:102930003B4A3C4B1B7802EBC3025168384A394B87
:102940001B7852F833006A4603F06EFC04463548A3
:1029500000780B285AD2DFE800F0060A08090B07B6
:102960001E461F47520000BF00BF00BF00BF00BF90
:1029700044B100202C4908702A480078401C29499D
:10298000087007E02748007820B126480078401EEC
:102990002449087041E000BFBCB1009801280DD166
:1029A0000020214908701F480078062804D108201B
:1029B0001C490870002038BD0120FCE7009820B9B0
:1029C00018480078401C17490870174801780078AB
:1029D000401C154A1070052904DD002011460870BE
:1029E0001049087019E000BF2CB10E480078401E55
:1029F0000C49087002E004200A4908700DE00CB18F
:102A0000092000E004200749087006E00420054979
:102A1000087000200449087000BF00BF0020CAE70A
:102A2000547A0008580800205A08002000BFFEE72A
:102A3000704710B54FF4A06000F03AF810BD0000E8
:102A400070B5002100230F22C47804B3154C24680C
:102A500004F4E064C4F5E064210AC1F10403CA404F
:102A6000447804FA03F184781440214309010E4CA0
:102A70000678A155047804F01F050124AC400578C0
:102A80006D11AD0005F1E025C5F8004109E00478BD
:102A900004F01F050124AC40044D0678761145F87A
:102AA000264070BD0CED00E000E400E080E100E0B5
:102AB00002490143024A1160704700000000FA0514
:102AC0000CED00E00121024A1170024908807047B4
:102AD000880000208E000020014908627047000035
:102AE00000000E421FB50121092000F0F7F8032075
:102AF0008DF80E0048208DF80F004FF40040ADF81F
:102B00000C0003A91248FEF7FFFF0F210120FEF77A
:102B1000DBFF4FF40040009000208DF804000C20F3
:102B20008DF8050001208DF806006846FEF7C0FE0E
:102B300028208DF8080000208DF8090003208DF86A
:102B40000A0001208DF80B0002A8FFF779FF1FBDD6
:102B5000000C01407047000010B515480078C8B956
:102B60004FF480711348FFF7A3F8012808D11248E9
:102B70000078D8B901F080FA01200F49087015E0FB
:102B80000D480078012811D101F030FB00200A49DE
:102B900008700BE009480078012804D1002007499B
:102BA000087001F023FB05200549087610BD0000E0
:102BB00072000020000801407B000020730000200C
:102BC000BA01002010B5044602480480008800F0D5
:102BD00035F810BD3402002000B585B00121042075
:102BE00000F07CF80121480700F058F81020ADF8FB
:102BF000100000208DF8130003208DF8120004A9A6
:102C00000D48FEF781FF10210B48FFF75CF800200C
:102C10000090019002900220039069460020FEF788
:102C200049FC01210020FEF731FC00210846FEF797
:102C30005BFC05B000BD00000008014070B5054612
:102C4000284604F03FFC04460C49204604F04EFCA4
:102C500009D821460A4804F07DFC0646074904F0DD
:102C60001BFB044600E0064C204604F0F3FB86B252
:102C700031460020FEF738FC70BD000000004843DC
:102C800000F07F4501460020034A506820F4404090
:102C900008435060704700000010024029B1064A06
:102CA000D2690243044BDA6104E0034AD2698243E9
:102CB000014BDA61704700000010024029B1064A5A
:102CC00012690243044B1A6104E0034A1269824309
:102CD000014B1A61704700000010024029B1064AFA
:102CE00092690243044B9A6104E0034A9269824369
:102CF000014B9A61704700000010024029B1064A5A
:102D0000D2680243044BDA6004E0034AD26882438B
:102D1000014BDA6070470000001002402DE9F041DD
:102D200000210022002500230026002400278C46D5
:102D3000DFF86081D8F8048008F00C0121B1042983
:102D400007D0082959D109E0DFF84C81C0F800808C
:102D500058E0DFF84481C0F8008053E0DFF83481A8
:102D6000D8F8048008F47012DFF82881D8F80480BD
:102D700008F48035920C0D2A01D0921C00E0062246
:102D800035B9DFF8188102FB08F8C0F8008033E09D
:102D9000DFF80081D8F82C8008F48036DFF8F48062
:102DA000D8F82C8008F00F0808F1010446B9DFF8C4
:102DB000E880B8FBF4F808FB02F8C0F800801BE0DC
:102DC000DFF8D080D8F82C80C8F3031808F1010789
:102DD000DFF8C080D8F82C80C8F3032808F1020C73
:102DE000DFF8B480B8FBF7F808FB0CF8B8FBF4F890
:102DF00008FB02F8C0F8008004E0DFF89C80C0F80F
:102E0000008000BF00BFDFF88C80D8F8048008F095
:102E1000F0010909DFF8888018F80130D0F8008047
:102E200028FA03F8C0F80480DFF86880D8F8048036
:102E300008F4E061090ADFF8688018F80130D0F87A
:102E4000048028FA03F8C0F80880DFF84880D8F832
:102E5000048008F46051C90ADFF8448018F8013092
:102E6000D0F8048028FA03F8C0F80C80DFF824803A
:102E7000D8F8048008F44041890BDFF8288018F85E
:102E80000130D0F80C80B8FBF3F8C0F81080BDE832
:102E9000F08100000010024000127A0000093D009D
:102EA000080800201808002000210B4A11700A4A67
:102EB000203A82F82010012802D0042808D103E02B
:102EC0000121054A117004E00521034A117000E058
:102ED00000BF00BF704700002010024070B50546DB
:102EE0000E4601200B49086000240DE035F814104F
:102EF000094802F0BEFE00BF4021074802F0ECFD89
:102F00000128F9D1601CC4B2B442EFDB00200149B2
:102F1000086070BDB88121420050004010B500200B
:102F20000349087000F0D4F800F06AF910BD000001
:102F30009C02002010B505225849594800F098FE1F
:102F4000042258495648F03000F092FE04225649B7
:102F50005348803000F08CFE0422544950484030E1
:102F600000F086FE4D480078FF280ED1052250491A
:102F70004B4800F091FE002404E00020474908552A
:102F8000601CC4B2052CF8DB1CE000204949086035
:102F9000087148714148007942F2107148433F4935
:102FA000C97801EBC10202EB011100EB81003B4942
:102FB000897808443F4908603848407808713748A4
:102FC0000078487137480078FF280FD104223A4929
:102FD0003348F03000F060FE002404E00020314966
:102FE0000855601CC4B2052CF8DB11E02D48807830
:102FF00042F2107148432B49497801EBC10202EBC0
:10300000011100EB81002749097808442B49086029
:1030100025480078FF280FD1042229492048803014
:1030200000F03AFE002404E000201F490855601C0F
:10303000C4B2052CF8DB17E01B48C078214948438F
:103040001949897840F27122514300EB0110164969
:10305000497801EBC10202EB011100EB810012493A
:10306000097808441849086010480078FF2805D0FE
:103070000E48007810B10D48807868B904221349D1
:103080000748403000F008FE142008490870282046
:10309000487088706420C87010BD000004000020D3
:1030A0000000010809000020A400002054000020B6
:1030B0000D0000206C020020120000201C000020E7
:1030C0001600002040420F0094000020580000200D
:1030D0002DE9F0470024A1464FF400514148FEF786
:1030E000F2FD10213F48FEF7ECFD0A2002F05AFFE6
:1030F0004FF400513B48FEF7E4FD0A2002F052FF76
:1031000000BF18E010213748FEF7DDFD4FF6FF70D5
:1031100000EA490908213348FEF7CAFD012801D118
:1031200049F0010910212F48FEF7CBFD0A2002F0DB
:1031300039FF601CC4B2102CE4DB4FF40051294865
:10314000FEF7C1FD4FF6FF7000EA49094FEA291961
:10315000484603F08DFD07460022234B03F0D8FDBF
:10316000054603F041FD1FFA80F92048A0F80A90B7
:1031700000240FE01D49601C31F8100021F81400F4
:10318000084630F814001A490968084418490860CC
:10319000601CC4B2052CEDDB154800680521B0FBAE
:1031A000F1F0144908800846008840F22621884240
:1031B00002DD08460F4908800E480088642190FB14
:1031C000F1F201FB12000C4908700A4800886421E2
:1031D00090FBF1F009490870002005490860BDE83E
:1031E000F0870000001001400000D03FD008002010
:1031F000440200203C020020400200204102002046
:103200002DE9F0470024A1464FF400514148FEF754
:103210005AFD10213F48FEF754FD0A2002F0C2FE7D
:103220004FF400513B48FEF74CFD0A2002F0BAFE75
:1032300000BF18E010213748FEF745FD4FF6FF703C
:1032400000EA490904213348FEF732FD012801D183
:1032500049F0010910212F48FEF733FD0A2002F042
:10326000A1FE601CC4B2102CE4DB4FF400512948CD
:10327000FEF729FD4FF6FF7000EA49094FEA2919C8
:10328000484603F0F5FC07460022234B03F040FDBF
:10329000054603F0A9FC1FFA80F92048A0F80A901F
:1032A00000240FE01D49601C31F8100021F81400C3
:1032B000084630F814001A4909680844184908609B
:1032C000601CC4B2052CEDDB154800680521B0FB7D
:1032D000F1F0144908800846008840F2262188420F
:1032E00002DD08460F4908800E480088642190FBE3
:1032F000F1F201FB12000C4908700A4800886421B1
:1033000090FBF1F009490870002005490860BDE80C
:10331000F0870000001001400000D03FDC080020D2
:10332000480200203E02002042020020430200200A
:1033300010B500206949087069480078AA2870D142
:10334000674840787828FAD10120664908706648B5
:1033500000780028F3D16248C07800287ED0604809
:10336000C078042808D100205D49C87001205F4959
:10337000087000F081FE71E05948C078052807D137
:1033800000205749C87042F6E06000F0C7FE65E0D3
:103390005348C078062805D100205149C87000F074
:1033A00025FF5BE04E48C078122810D100204C4920
:1033B000C8704F480088002804DD4D480088401E32
:1033C0004B4908804A480088FFF738FC46E04448EB
:1033D000C078132814D100204149C870444800889F
:1033E000C82805DA42480088401C4149088002E0AC
:1033F00000203F4908803E480088FFF71FFC2DE071
:103400003748C078162815D100203549C87039488A
:103410000078C82806DA374800780A30354908703D
:103420001CE05AE033480078C82817DBC82031492F
:10343000087013E02A48C07817280FD100202849C7
:10344000C8702C480078002805DD2A4800780A3822
:103450002849087002E0002026490870204880783A
:10346000F0280BD100201E4988700846C0782249F8
:1034700008700422214800F00FFC2EE018488078E4
:10348000F1280BD10020164988700846C0781A49E7
:1034900048700422194800F0FFFB1EE010488078B5
:1034A000F2280BD100200E4988700846C0781249D6
:1034B00088700422114800F0EFFB0EE00848807885
:1034C000F3280AD10020064988700846C0780A49C6
:1034D000C8700422094800F0DFFB10BDED07002092
:1034E0009C120020EE07002072000020F60700204A
:1034F0003402002032020020540000204000010865
:1035000010B500206749087067480078AA2870D174
:10351000654840787828FAD10120644908706448E9
:1035200000780028F3D16048C07800287AD05E483F
:10353000C078042808D100205B49C87001205D498B
:10354000087000F099FD6DE05748C078052807D154
:1035500000205549C87042F6E06000F0DFFD61E0F0
:103560005148C078062805D100204F49C87000F0A6
:103570003DFE57E04C48C078122810D100204A493F
:10358000C8704D480088002804DD4B480088401E64
:103590004949088048480088FFF750FB42E042480C
:1035A000C078132814D100203F49C87042480088D1
:1035B000C82805DA40480088401C3F49088002E0DE
:1035C00000203D4908803C480088FFF737FB29E090
:1035D0003548C078162811D100203349C8703748C3
:1035E0000078C82806DC354800780A30334908706E
:1035F00018E056E000203149087013E02A48C078EE
:1036000017280FD100202849C8702C4800780028BE
:1036100005DD2A4800780A382849087002E0C820E9
:103620002649087020488078F0280BD100201E49D8
:1036300088700846C078224908700422214800F0AA
:103640002BFB2EE018488078F1280BD1002016497A
:1036500088700846C0781A4948700422194800F05A
:103660001BFB1EE010488078F2280BD100200E4989
:1036700088700846C078124988700422114800F00A
:103680000BFB0EE008488078F3280AD10020064999
:1036900088700846C0780A49C8700422094800F0BA
:1036A000FBFA10BD21000020340D00209302002001
:1036B00072000020F60700203402002032020020B1
:1036C000540000204000010810B55A480078012835
:1036D0002FD100205849087058480078012803D19C
:1036E00000205749086019E05448007810B90120BB
:1036F0005449087054480088B0F5B97F08DA0120B1
:103700005249087000F066FD00205149087005E03C
:1037100002204E49087001204D4908704D4800882C
:10372000E62806DB01204A4908704FF4B970464983
:10373000088041480078012817D1022041490870CB
:1037400044480088B0F5BB7F03DC01203F49087086
:103750000BE040480088B0F5C07F03DC02203B4905
:10376000087002E00220394908703448007878BBBC
:103770003948007860BB36480078012828D136499E
:1037800008706420FDF78AFD42F6E06000F0C6FC98
:1037900001202B49103108603049C1F89C01C1F863
:1037A000A4012F490878FFF70DFA01202D49087070
:1037B0002D4908702D49087000202D4908700870A7
:1037C0002C4908802C490880224800882B49088011
:1037D0001A480078D8B924480078012817D11D4824
:1037E0000088E62803DA2648007801280FD1002057
:1037F0001D49087000F0DAFD012022490870FDF72C
:10380000A3FD03200F49087000201B4908800B48C6
:10381000007801280CD102200C49087001201A49B7
:1038200008700C480088642802DC012017490870E1
:1038300010BD0000240000204100002023000020D3
:10384000840122423E000020AE0200202802002017
:10385000220000203C0200203B000020008021428A
:1038600054000020270000203D000020A802002076
:103870002E000020320000205200002060000020B6
:103880005100002055020020750000206200002039
:1038900021480068B0F5F07F06D901201F49086073
:1038A0001F4908701F4908701B480068B0F5AA7FBF
:1038B00003D801201C49087002E000201A49087052
:1038C0001A4800684B2803D30120194908700EE0FC
:1038D00016480068412803D301201649087006E005
:1038E000124800683C2802D900201249087012488A
:1038F000007848B90120114908601149C1F89C01BC
:10390000104908700C490870034800680E4909689E
:1039100048430E490860704710020020B0812142E0
:103920002602002027020020B200002018020020FA
:1039300079000020B100002023020020A4012242CF
:1039400000002242A00000201402002004020020F7
:1039500010B55148007801280DD15048007850B971
:103960004FF47A704E490880084601884D48008817
:10397000FEF7E6FE83E04848007801280ED147486C
:10398000007801280AD14FF4FA60454908800846BA
:10399000018844480088FEF7D3FE70E03E48007876
:1039A00001280ED13D48007802280AD14FF4FA6070
:1039B0003B490880084601883A480088FEF7C0FE67
:1039C0005DE035480078002859D134480078032854
:1039D00055D135480088324908803348018831483C
:1039E0000088FEF7ADFE31480068B0F5C87F1CD2F4
:1039F0002F480068642818D901202E4908802E48D5
:103A0000008878283BDB26480088C838642805DB16
:103A100023480088C8382249088002E064202049F1
:103A2000088000202449088029E020480068B0F57B
:103A3000D77F1FD91E48006864281BD901201D4963
:103A400008801D480088782819DB154800886430F4
:103A500040F6B831884205DC1148008864301049CE
:103A6000088003E040F6B8300D4908800020124974
:103A7000088004E000200F4908800F4908800C48A6
:103A80000068462807D80120034908700020034930
:103A900008700A49088010BDF6070020F7070020CB
:103AA0000008002002080020040800201002002066
:103AB00014020020FA070020FC070020F80700206D
:103AC00000B545480078002803DC44480078002809
:103AD0007ADD434800883C2815DD3F4800780128FE
:103AE00011D124203F4908703B480078012848D173
:103AF0003D480078002844D10220374908707820DA
:103B0000FDF7CCFB3DE036480088782811DB3248D1
:103B1000007802280DD130480078022831D132488F
:103B2000007870BB03202C4908709620FDF7B6FB87
:103B300027E02B480088AA2811DB274800780328B3
:103B40000DD12548007803281BD127480078C0B93B
:103B5000042021490870C820FDF7A0FB11E020488F
:103B60000088AF280DDB1C480078042809D11A48CA
:103B70000078042805D11C48007810B900201649A7
:103B800008701A4800783C3015490988884221DCC1
:103B90001248007801281DD11548C07813490978CA
:103BA0000844C82811DA114800780A300F49087013
:103BB0000A48007801280DD10D49C9780B4A1278BE
:103BC0001144C8B2FDF76AFB04E000200349087005
:103BD0000649087000BD00002700002026000020D4
:103BE000520000204D000020230000206300002030
:103BF0005400002010B500201849087018480068CB
:103C00006421B0FBF1F201FB120016490870144860
:103C1000006842F21071B0FBF1F201FB1200642166
:103C2000B0FBF1F00F4948700D4800680E49B0FB39
:103C3000F1F201FB120042F21071B0FBF1F0094900
:103C40008870074800680849B0FBF1F00549C87062
:103C50000422064800F020F810BD0000AC0000204F
:103C600094000020A400002040420F0080000108C2
:103C700030B503460C461546002207E0184600F012
:103C800008F824F812009B1C501C82B2AA42F5DBF3
:103C900030BD0146088870472DE9F05F80468A46AE
:103CA0001746B8F1006F02D33348804501D3BDE811
:103CB000F09FFDF7E9FEA8F1006B4FEA9B25CBF3DF
:103CC0004809C9F50074A74200DC3C464DE04FF0BE
:103CD000006101EB85208A142849FFF7C9FF0026FF
:103CE0000BE009EB0600254931F810004FF6FF7193
:103CF000884200D003E0701C86B2A642F1DB00BF10
:103D0000A6421BDA4FF0006101EB8520FDF752FE61
:103D1000002608E03AF8160006EB0901174A22F8D7
:103D20001100701C86B2A642F4DB4FF0006101EB7B
:103D300085208A14114900F023F804E022465146F8
:103D4000404600F01DF8A74200D10FE06D1C4FF077
:103D500000090AEB440AA044381B87B2B7F5007F7C
:103D600002DD4FF4007400E03C46B0E700BFFDF711
:103D700061FE00BF9BE7000000000208E808002089
:103D80002DE9F04105460E461746002407E036F8B7
:103D900014102846FDF758FEAD1C601C84B2BC42CE
:103DA000F5DBBDE8F081704770B505460C460BE0C9
:103DB00000BF4021284601F08FFE0028F9D014F8FA
:103DC000011B284601F055FF20780028F0D170BD76
:103DD00010B500F001F810BD0CB500200190009066
:103DE0003F48006840F480303D49086000BF3C48CF
:103DF000006800F4003000900198401C0190009889
:103E000018B90198B0F5A06FF1D13548006800F4F9
:103E1000003010B10120009001E0002000900098D7
:103E200001285CD12F48006840F010002D4908603F
:103E30000846006820F0030008600846006840F06B
:103E400002000860264840682549486008464068E6
:103E500048600846406840F4806048600846C06A90
:103E6000214908401E49C8620846C06A1F490843E4
:103E70001B49C8620846006840F08060086000BFC7
:103E80001748006800F000600028F9D01448406826
:103E900020F47C10124948600846406840F4E8105D
:103EA00048600846006840F08070086000BF0C4819
:103EB000006800F000700028F9D00948406820F040
:103EC0000300074948600846406840F00200486027
:103ED00000BF0348406800F00C000828F9D10CBD71
:103EE000001002400020024000F0FEFF1408010014
:103EF000F8B507460C461DA11F48FCF785FB064692
:103F0000002E30D0002000900A213046FCF772FBD2
:103F1000002826D0194B6A4619A13046FCF736FA1C
:103F2000002507E06219154901EB45001EA1FCF7C9
:103F30002DFA6D1C00988542F4DB00200099605436
:103F40001A48FDF78FFA20784F2807D160784B2860
:103F500004D10A20164908700020F8BD009880B2EC
:103F6000FBE70020F9E70020F7E700002B5A495053
:103F7000524543563A0000007C0E0020AC18002049
:103F80002B5A4950524543563A20312C3132302E6B
:103F900037362E3230342E3131352C343033303404
:103FA0002C25642C25730000253278000038014050
:103FB000590800202DE9F04106460D461746234CCE
:103FC0002348007820B90A20224908702049087047
:103FD000FEF7AAFC002837D032461FA11B480D3837
:103FE000FCF750F9002114E02878C21700EB127298
:103FF00012111D4B9A5C04F8012B15F8010BC21726
:1040000000EB12721211A0EB02129A5C04F8012B61
:10401000491CB942E8DB0020207014A10B480D3880
:10402000FCF723FB002212A108480D3802F0FCF82F
:1040300038B107480078401E054908700120BDE8E6
:10404000F0810020034908700020F8E7B91400202F
:10405000590800205808002041542B5A4950534514
:104060004E443D25642C0000B47A00080D0A00007F
:104070000D0A4F4B0D0A000010B51A48007820B900
:104080000020194908701949087001201849086072
:1040900018490870C1021848FDF715FE642001F0A8
:1040A0005BFF4FF400611448FDF70BFE002013493D
:1040B0000870134908704FF4FA7001F04DFF0020AA
:1040C0001049087001201049087000200F4908703D
:1040D0000F49087001200F49087000200E49087030
:1040E00010BD0000230000203B0000202200002023
:1040F000A001224224000020000C014042000020C8
:1041000041000020230200207400002079000020DC
:10411000690000206A00002064000020084908604F
:104120000221084A11700121074A1160074A1170E3
:104130000021074A11600121064A117070470000F2
:10414000A40200202A020020BC01224225000020F7
:104150008C02002048000020084908600221084A1B
:1041600011700121074A1160074A11700021074AA6
:1041700011600321064A117070470000A40200205C
:104180002A020020BC012242250000208C020020CF
:10419000480000200948007801280ED1084800781E
:1041A00001280AD10749086007490870002007491B
:1041B00008700749087002490870704775000020B0
:1041C000740000209C012242AD0000202602002045
:1041D000270200200348007810B901200249086036
:1041E00070470000230000208401224210B5002007
:1041F0002C4908702C4908702C49088040F2465020
:10420000FCF7B2FF01202A490870002029490870F4
:1042100001202949087000202849087000F0E8F8BA
:10422000012027490870052226492748FFF734FD59
:1042300000202649087026480078012822D1C102B2
:104240002448FDF740FD4FF4C87001F085FE4FF49F
:1042500000612048FDF735FD4FF4966001F07CFECB
:104260004FF400611B48FDF72EFD4FF4C87001F0BC
:1042700073FE4FF400611748FDF723FD0020144939
:1042800008700CE04FF400611248FDF71CFD64203B
:1042900001F062FE4FF400610E48FDF712FD00F0E0
:1042A0001BF810BDF6070020F7070020F8070020D4
:1042B0006B0000203E000020410000206200002032
:1042C0004200002004000020000001082602002017
:1042D00078000020000C014010B524480078012827
:1042E00042D12348007801283ED122480078012895
:1042F00004D100201F490870FFF778FF00201C49F7
:10430000087001201C49087000201C4908701C49D5
:10431000087001201B49086000201B49087040F20A
:104320004650FCF721FF0120184908700020184969
:10433000C1F8B00101201749087017490870002022
:104340000A4908701549087015490870002404E0EE
:10435000002014490855601CC4B2052CF8DB00206D
:10436000114948710871086010BD000079000020F3
:104370007500002026020020AE00002088000020EA
:10438000910000209C012242780000206B00002058
:1043900000802142840000207400002023020020BD
:1043A0001D0200201E0200207402002000B5002023
:1043B000FCF774FF032008490870084908700020C2
:1043C000074908600749C1F894010749086007498F
:1043D000C1F8A40100BD00002B0200202A02002029
:1043E000BC012242000022429C81214200802142E5
:1043F00000B500202A49086003202A4908700020DF
:104400002949087029490870012029490870FFF7D7
:10441000CDFF00202749087001202749087000209F
:104420002649C1F8A4011E493831086024490860B2
:10443000244908702449087024480078012809D1CB
:10444000002022490870012021490870C820FCF78B
:1044500025FF05E001201E4908709620FCF71EFF8D
:1044600003201C4908701C4908701C48007800F0A3
:10447000FB001A4908700020194908801949087082
:1044800019490880194908701949087019490870B4
:10449000154908801849087001201849087000BDA6
:1044A000840122422802002024000020A8020020CB
:1044B0000100002023000020000000200080214295
:1044C0008C02002025000020480000203C00002035
:1044D0002E000020290200202A0200203A0000209D
:1044E000AE0200203D0000205200002051000020BC
:1044F0002700002026000020230200207400002056
:10450000042808D14FF0E021096941F004014FF07F
:10451000E022116107E04FF0E021096921F0040178
:104520004FF0E022116170477047000010B5164847
:10453000006840F0010014490860084640681349CB
:1045400008401149486008460068114908400E4972
:1045500008600846006820F480200860084640682B
:1045600020F4FE0048600846006820F0A050086073
:104570004FF47F0088600020C862FFF729FC4FF0ED
:1045800000600449086010BD001002400000FFF008
:10459000FFFFF6FE08ED00E0F0B50C4615460022E0
:1045A0000021068C4FF6FE773E400684028B018C7C
:1045B0004FF60C7632407E1C06EA03162E43324339
:1045C000104EB0420ED0104EB0420BD0B0F1804F22
:1045D00008D00E4EB04205D00D4EB04202D00D4E66
:1045E000B04206D14FF6FD76314044F0010631432A
:1045F00005E04FF6F576314044F001063143028381
:104600000184F0BD002C0140003401400004004052
:1046100000080040000C0040F0B50C461546002292
:1046200000210026078C4FF6EF7C07EA0C07078471
:10463000028B018C4FF6FF7707EA041640F6FF471E
:104640003A404FF6FF7707EA03373A434FF6FF77D2
:1046500007EA05273A43114FB8420ED0104FB8422F
:104660000BD0B0F1804F08D00E4FB84205D00E4F9E
:10467000B84202D00D4FB84206D14FF6DF7739402D
:1046800046F01007394305E04FF65F77394044F0B4
:104690001007394302830184F0BD0000002C014063
:1046A000003401400004004000080040000C0040BD
:1046B000F0B50C461546002200210026078C4FF667
:1046C000FF6C07EA0C070784828B018C4FF6FF779B
:1046D00007EA04264FF60C773A404FF6FF7707EAD1
:1046E00003172F433A43114FB8420ED0104FB84230
:1046F0000BD0B0F1804F08D00E4FB84205D00E4F0E
:10470000B84202D00D4FB84206D14FF6FF5739409C
:1047100046F48077394305E04FF2FF57394044F4BF
:104720008077394382830184F0BD0000002C014072
:10473000003401400004004000080040000C00402C
:10474000F0B50C461546002200210026078C4EF6D7
:10475000FF7C07EA0C070784828B018C4FF6FF77FA
:1047600007EA043640F6FF473A404FF6FF7707EA7C
:1047700005273A434FF6FF7707EA03373A43114FCD
:10478000B8420ED0104FB8420BD0B0F1804F08D0D5
:104790000E4FB84205D00E4FB84202D00D4FB8426E
:1047A00006D14DF6FF77394046F48057394305E08E
:1047B00047F6FF57394044F48057394382830184D8
:1047C000F0BD0000002C0140003401400004004016
:1047D00000080040000C004010B52948007800F0A7
:1047E0008000002846D10121880700F04EFFD0B19B
:1047F0002348007800F04000A8B12148007800F07C
:104800003F003F280AD11E48007840F080001C4934
:1048100008704FF6FF701B49088004E018480078C4
:10482000401C174908700821C80600F02EFF08B385
:104830001348007800F0400060B11148007840F063
:1048400080000F4908704FF0804000F01BFF0D49B9
:1048500008800FE000200A4908700A4908800021FA
:104860004FF0804000F0D9FF0548007840F040004C
:10487000034908700921880700F0FFFD10BD000002
:10488000580200205A02002030B589B005460C4677
:1048900001210846FEF702FA01210820FEF71EFA60
:1048A00001212E48FDF7BCF94FF48060ADF80400FB
:1048B00028208DF8070003208DF8060001A928485C
:1048C000FDF722F9681E80B2ADF81C00601E80B2B0
:1048D000ADF818000020ADF81E00ADF81A0006A9CA
:1048E0004FF0804000F0C8FF1C208DF8140000201D
:1048F0008DF8150001208DF816008DF8170005A819
:10490000FEF79EF80820ADF808000020ADF80A0078
:104910000120ADF80C000020ADF80E00ADF810003D
:1049200002A94FF0804000F0C1FE0121880700F08D
:1049300095FD0121880700F0A3FE1F214FF0804064
:1049400000F098FD01220921880700F005FF0121F0
:10495000880700F095FD09B030BD00000002180086
:10496000000C014010B50121724800F08EFE0028B5
:104970007AD001216F4800F080FD6F4800680A215D
:10498000B0FBF1F06D49096808446C4908600846BD
:104990000068FA2804D3002008602820FEF792F867
:1049A0000120674908706748007801280DD16648E2
:1049B0000078401C6449087008460078022804DB2F
:1049C000002008700120614908706048007860B9D3
:1049D0005F480078401C5E4908700846007801284E
:1049E00003DB00200870574908705A4800780128F6
:1049F00028D159480088401C57490880084600883B
:104A00000C2807DB08460088182803DA01205349E0
:104A1000087017E050480088182807DB4E480088C7
:104A2000242803DA02204D4908700BE04A48008828
:104A3000242807DB032049490870002045490870F5
:104A4000454908804648007801280ED1454800882D
:104A500020B145480088401C434908804348408DA8
:104A6000401C4249488503E062E000203F494885F8
:104A70003F48007868B13F480078401C3D490870C5
:104A800008460078782804DB002039490870394945
:104A9000087039480078012810D138480078401C47
:104AA000364908700846007878280AD10020087036
:104AB0003149087001203249086002E000202F4986
:104AC000087030480078012832D12F480078401C07
:104AD0002D49087008460078782805DB002008700A
:104AE0002A490860274908702749087800EBD071E7
:104AF0004910A0EB4101D9B925480088012809DDFA
:104B000023480088801E2249088008460088FEF756
:104B100095F80DE000201E49088008460088FEF741
:104B20008DF8002016490C3908601A49C1F8B801FF
:104B300010BD00000004004014020020B00200205C
:104B4000B4020020F2070020F3070020F407002041
:104B5000F5070020F6070020F8070020F7070020DF
:104B600078000020FA070020FC070020E80C002055
:104B7000060800200708002000000020680200202E
:104B8000A00122420100002069020020A0812142F0
:104B900034020020000022427FB505460C46012168
:104BA0000220FEF77BF8ADF80850ADF80440002075
:104BB000ADF80A00ADF8060001A90E4800F05CFE51
:104BC000012211460B4800F0C7FD1D208DF80000A2
:104BD00000208DF8010003208DF8020001208DF8DF
:104BE00003006846FDF72CFF0121024800F048FC55
:104BF0007FBD0000000400402DE9F84F0121FE4870
:104C000000F043FD00287DD00121FB4800F035FC79
:104C1000FA480078012805D1F9480088401CF84975
:104C2000088004E00020F6490880F6490870F6483C
:104C30000078012815D14103F448FDF739F880B90F
:104C4000F3480088401CF249088008460088142870
:104C50000EDB00200880EC4908700120ED49087047
:104C600006E00020E8490870E9490880E949087031
:104C7000E9480088401CE849088008460088322836
:104C80001EDB002008800120E4490870E448007819
:104C9000012801D1E3480068E348007880B9E3487F
:104CA000007801280CD1E2480088401CE0490880C7
:104CB00008460088B0F5B97F02DB4FF4B970088070
:104CC000DC480088401CDB49088008460088092829
:104CD00000D100BFD748008864280FDB0020D549E9
:104CE0000880D5480078002803DCD44800780028E4
:104CF00004DDD3480088401CD1490880D1480078A1
:104D0000002800E03DE352D0CF480068401CCE4967
:104D100008600846006844F25061884279D1C24870
:104D2000007840BBC9480088B0F5967F0EDB0220B2
:104D3000C74908700020C3490870C3490860B949D1
:104D4000AC3108600320C349087019E0C2480088EC
:104D5000C2490988401A14280EDB0220BC49087099
:104D60000020B8490870B8490860AE49AC31086005
:104D70000320B849087003E040F6B830FFF7ECF9BB
:104D8000A9480078012812D1B0480088B0F5967F74
:104D90000EDB0220AE4908700020AA490870AA491B
:104DA0000860A049AC3108600320AA4908707AE085
:104DB000AA480088642802DC0120A9490870A2489A
:104DC000006844F25061884207D101209549AC3116
:104DD000086002209F49087065E09B48006845F222
:104DE0000821884207D100208E49AC310860032099
:104DF0009849087057E09448006845F6C0518842C9
:104E000008D101208749AC3108600220914908701F
:104E100049E01FE08C48006846F67811884207D1C7
:104E200000208049AC31086003208A4908703AE0CC
:104E30008548006847F23051884234D100208149CA
:104E40000870814908607749AC31086003208149C6
:104E5000087028E07C48006882490968884207D3C6
:104E600000207049AC31086003207A4908701AE0CC
:104E70007548006841F66411884207D101206949EC
:104E8000AC3108600220734908700CE06E4800687D
:104E900041F20C71884206D100206249AC310860B1
:104EA00003206C4908707048007818B36F48008878
:104EB000401C6E490880084600886D490978884280
:104EC00023DB0020694908806A480088932807DBB3
:104ED000684800889C2803DC01206549087014E0BC
:104EE00064480088A32806DB00206349087001207D
:104EF0006249087009E05F4800888C2805DC0120C1
:104F00005D49087000205D4908705D480078E8B18F
:104F10005C480088401C5B4908800846008864287B
:104F200014DB0020088058480088401C564908803F
:104F300008460088B42809DB00205149087052490E
:104F40000880FCF7ABF903205049087050480088EE
:104F5000401C4F49088008460088052810DB0020C7
:104F600008804C480078401C4A49087001204A4992
:104F7000087048480078092802DB0120454908707C
:104F80004648007801280FD145480088401C444914
:104F900008800846008843490988884204DD0020CB
:104FA0003F4908803D4908703F48007801281BD1DF
:104FB0003E480078C0B93E480068401C3C49086043
:104FC00008460068B0F5FA7F04D8012015498C31F5
:104FD000086009E000203649086001203349087064
:104FE000344908703449087034480078012869D180
:104FF00033480088401C66E0000C0040EC070020AD
:10500000EA070020E807002043000020000C0140D0
:10501000440000204F000020860200209C02002057
:105020004100002010012242230000202400002023
:10503000AE02002088020020270000202600002069
:1050400052000020250000208C0200203E0200209B
:10505000480000202A020020600000203C020020BE
:1050600062000020A40200206400002066000020EE
:105070006800002002020020690000206A00002071
:105080002E00002030000020320000202B020020E3
:105090009002002092020020B90100208800002028
:1050A0008A0000208E00002076000020770000207B
:1050B0006402002078000020F6070020A0000020F5
:1050C000A200002038E0B049088008460088642823
:1050D00032DB00200880AD48006802F0F3F9009050
:1050E00002F040F880460022A94B01F025FC04465E
:1050F0000D46A848006801F0BBFD064622462B4637
:1051000001F066FB824601F06FFDA2490860084687
:105110000068A149096888420ED3A0480068401C75
:105120009E4908609B4800689B490968401A994954
:10513000086001209A4908709A480078012810D127
:1051400099480088401C9849088008460088012832
:1051500007DB002093490870934908800120934998
:10516000087093480078012812D192480088401CAA
:10517000904908800846008840F6B831884207DB2D
:1051800000208B4908708B490880012087490870EE
:1051900089480078012815D188480088401C874933
:1051A00008800846008840F2DC5188420ADB002073
:1051B00081490870814908808149086081490870E7
:1051C000814908708148007848B181480068B0F58D
:1051D000B47F04D800207D490870FBF7C5FF7D48E7
:1051E000007820B17C48C088401C7B49C8807A4840
:1051F000C08864284ADB00207749C8800846407987
:10520000401C4871084640797449087072484079DA
:105210003C283BDB00207049487108460079401C5F
:105220000871084640796D4908706B4800794870EC
:10523000694800793C2829DB002067490871084645
:105240000068401C0860084640796449087062485C
:10525000007948706048006842F21071B0FBF1F2CA
:1052600001FB12006421B0FBF1F201FB12005B496B
:1052700088705948006842F21071B0FBF1F201FBEE
:1052800012006421B0FBF1F05449C8705448007812
:1052900020B15448C088401C5249C8805148C08839
:1052A00064286EDB00204F49C88008464079401CC6
:1052B0004871084640794C4908704C4800780028ED
:1052C00012DD4A480078052809DB49480078FDF7D7
:1052D000FDF90220474908700020444908704348FE
:1052E0000078401C414908703E4840793C2848DB22
:1052F00000203C49487108460079401C0871084666
:105300004079394908703748007948703A48007840
:10531000401C39490870334800793C2831DB0020B3
:105320003049087108460068401C0860084640790A
:105330002D4908702B48007948702A48006842F2CD
:105340001071B0FBF1F201FB12006421B0FBF1F22D
:1053500001FB1200244988702248006842F2107153
:10536000B0FBF1F201FB12006421B0FBF1F01E4929
:10537000C8701C48006842F21071B0FBF1F01A4985
:105380000871BDE8F88F0000A20000200402002090
:10539000000059409C00002098000020940000204C
:1053A000AC0000207C0000207E000020790000205E
:1053B0008000002082000020840000208600002061
:1053C0009C012242A0000020230200206B0000204C
:1053D0001002002078000020740200201E0200202D
:1053E000240000206C02002004000020A8020020FD
:1053F000320200202B0200209B0200207FB50546D0
:105400000C4601210820FDF749FCADF80850ADF825
:1054100004400020ADF80A00ADF8060001A90E48CE
:1054200000F02AFA012211460B4800F095F93220CB
:105430008DF8000000208DF8010003208DF8020097
:1054400001208DF803006846FDF7FAFA01210248B1
:1054500000F016F87FBD0000000C004021B102886A
:1054600042F08002028004E002884FF67F731A4007
:1054700002807047CA4302827047CA430282704763
:1054800021B1028842F00102028004E002884FF656
:10549000FE731A400280704710B504466848844283
:1054A00008D10121C014FDF729FC0021E014FDF70B
:1054B00025FCC4E0B4F1804F08D101210846FDF776
:1054C000FDFB00210120FDF7F9FBB8E05D488442B7
:1054D00008D101210220FDF7F1FB00210220FDF798
:1054E000EDFBACE05848844208D101210420FDF7CF
:1054F000E5FB00210420FDF7E1FBA0E053488442D6
:1055000008D101210820FDF7D9FB00210820FDF773
:10551000D5FB94E04E48844208D101211020FDF7CC
:10552000CDFB00211020FDF7C9FB88E049488442EB
:1055300008D101212020FDF7C1FB00212020FDF72B
:10554000BDFB7CE04448844208D101214014FDF7B2
:10555000D5FB00216014FDF7D1FB70E03F48844289
:1055600009D10121C804FDF7C9FB00214FF4002037
:10557000FDF7C4FB63E03A48844209D101210805E4
:10558000FDF7BCFB00214FF48010FDF7B7FB56E0A0
:105590003448844209D101214805FDF7AFFB0021C1
:1055A0004FF40010FDF7AAFB49E02F48844208D1D0
:1055B00001214020FDF782FB00214020FDF77EFB0A
:1055C0003DE02A48844208D101218020FDF776FB86
:1055D00000218020FDF772FB31E02548844208D18C
:1055E00001218015FDF76AFB0021A015FDF766FB80
:1055F00025E02048844209D101210804FDF77EFB03
:1056000000214FF48030FDF779FB18E01A488442FE
:1056100009D101214804FDF771FB00214FF400304E
:10562000FDF76CFB0BE01548844208D1012188048A
:10563000FDF764FB00214FF48020FDF75FFB10BDF8
:10564000002C01400004004000080040000C004015
:10565000001000400014004000340140004C0140A4
:10566000005001400054014000180040001C004060
:10567000002000400040014000440140004801403B
:10568000818270470146888F704730B502460020FE
:1056900000230024158A05EA0103958905EA01041F
:1056A00013B10CB1012000E0002030BD70B50546FB
:1056B0000C46244885420ED0234885420BD0B5F1D4
:1056C000804F08D02148854205D02148854202D02C
:1056D0002048854200D100E000BF208850B92389CE
:1056E000A28861882846FEF757FFE188284600F027
:1056F00096F825E0208804280AD12389A2886188A9
:105700002846FEF789FFE188284600F091F817E067
:10571000208808280AD12389A28861882846FEF7B4
:10572000C7FFE188284600F090F809E02389A288A5
:1057300061882846FFF704F8E188284600F08EF8D3
:1057400070BD0000002C0140003401400004004006
:1057500000080040000C00401AB183890B4383818C
:1057600002E083898B4383817047000070B5002479
:1057700000220023058C4FF6FE7635400584028C0E
:105780008388048B4FF68F752C40B51E2C400D88F6
:105790002C43751E2A400D892A434D882A43144DF7
:1057A000A8420BD0134DA84208D0134DA84205D0F3
:1057B000124DA84202D0124DA84213D14FF6F775F0
:1057C0002A404D892A434FF6FB752A408D882A438B
:1057D0004FF6FF652B404FF6FF552B408D892B432D
:1057E000CD892B4383800483CD888586028470BD58
:1057F000002C0140003401400040014000440140C1
:10580000004801400A460021018B4FF6F77319400A
:105810001143018370478186704781847047028BF2
:105820004FF6F3731A400283028B0A4302837047D8
:10583000028B4FF2FF331A400283028B4FF6FF7345
:1058400003EA01231A4302837047828B4FF6F373F6
:105850001A408283828B0A4382837047828B4FF285
:10586000FF331A408283828B4FF6FF7303EA0123D2
:105870001A43828370470000002202881D4B984221
:105880000ED01D4B98420BD0B0F1804F08D01B4B6F
:10589000984205D01A4B984202D01A4B984204D134
:1058A0004FF68F731A404B881A43174B984207D014
:1058B000164B984204D04FF6FF431A40CB881A4348
:1058C00002808B8883850B8803850A4B98420BD016
:1058D000094B984208D00E4B984205D00D4B984288
:1058E00002D00D4B984201D10B7A038601238382AB
:1058F00070470000002C01400034014000040040CB
:1059000000080040000C004000100040001400405F
:1059100000400140004401400048014010B5002013
:1059200018490870184840791849087016480079D5
:1059300048701548006842F21071B0FBF1F201FBAB
:1059400012006421B0FBF1F201FB12000F498870D4
:105950000D48006842F21071B0FBF1F201FB120039
:105960006421B0FBF1F00949C8700748006842F2B1
:105970001071B0FBF1F00549087105220448FEF7EB
:105980008BF910BD9B0200206C0200200400002057
:105990000000010810B540F22551274800F0A9F891
:1059A000002847D0244800F05FF9C4B2204600F038
:1059B00013FD00F081FCAA2C04D100201F490870BF
:1059C0001F490870782C05D101201C49087000205F
:1059D0001B490870F32C05D10020184908700120DC
:1059E00017490870F42C04D1012014490870144997
:1059F00008701348007818B91248104909784454BF
:105A00000E480078401C0D490870084600780E4981
:105A1000097888420EDB0A48007810B901200B494A
:105A2000087007480078012801D109490870002052
:105A30000249087010BD0000004C00402C080020F6
:105A40002F0800209C1200202D080020ED070020C8
:105A5000F007002010B540F22551094800F049F840
:105A600060B1074800F000F9C4B20CB105480470F9
:105A700004480178044800F0FCF800BF10BD0000A5
:105A800000500040420800200038014010B540F2AC
:105A90002551084800F02DF858B1064800F0E4F808
:105AA000C1B2054802880088401C034B1880034897
:105AB000815410BD003801402A0800207C0E0020CF
:105AC00021B1828942F40052828104E082894DF63C
:105AD000FF731A408281704702460020B1F5007FB3
